{
  "contracts/LOB.sol": {
    "LOB": {
      "abi": [
        {
          "inputs": [],
          "name": "close_lob",
          "outputs": [],
          "stateMutability": "nonpayable",
          "type": "function"
        },
        {
          "inputs": [
            {
              "internalType": "address",
              "name": "member",
              "type": "address"
            },
            {
              "internalType": "uint256",
              "name": "created",
              "type": "uint256"
            },
            {
              "internalType": "bytes16",
              "name": "marketId",
              "type": "bytes16"
            },
            {
              "internalType": "address",
              "name": "coin",
              "type": "address"
            },
            {
              "internalType": "string",
              "name": "terms",
              "type": "string"
            },
            {
              "internalType": "string",
              "name": "meta",
              "type": "string"
            },
            {
              "internalType": "address",
              "name": "maker",
              "type": "address"
            },
            {
              "internalType": "uint256",
              "name": "providerSecurity",
              "type": "uint256"
            },
            {
              "internalType": "uint256",
              "name": "consumerSecurity",
              "type": "uint256"
            },
            {
              "internalType": "uint256",
              "name": "marketFee",
              "type": "uint256"
            },
            {
              "internalType": "bytes",
              "name": "signature",
              "type": "bytes"
            }
          ],
          "name": "open_lob_for",
          "outputs": [],
          "stateMutability": "nonpayable",
          "type": "function"
        }
      ],
      "evm": {
        "bytecode": {
          "object": "0c0000040004000000010000000000000000ffffffffffffffff0000000000000c000004000400000000ffffffffffffffffffffffffffffffff0000000000000e000000000200000001000000000000000000000000000000000000000000001a020004002000000002000000000000000000000000000000000000000000000c000008000800000001000000000000000001000000000000000000000000000c000008000800000000000000000000000000000000000000000000000000000c000000020002000001000000000000000000000000000000000000000000000c000000020002000000000000000000000000000000000000000000000000000c000080008000000001010000000000000000000000000000000000000000000c00008000800000000000000000000000000000000000000000000000000000028000000010000000000000000000000000000000000000000000000000000004200008000000000000000000000000000000000000000000000000000000000a0000000000000000040e000d0000000000000000000000000000000000000002000200001000000000000000000000000000000000000000000000000000000c0000040004000000017c7ee91ae51bb0ed9b9e413333bf74f70000000000000c000004000400000000b75ee1170f6b7c3ce4583c65d82198c40000000000000504000000000100000100000000000000000000000000000000000000000000028000000040000000000000000000000000000000000000000000000000000004000100000000000000000000000000000000000000000000000000000000000a00000000000000000415001400000000000000000000000000000000000000020002000040000000000000000000000000000000000000000000000000000004000180000000000000000000000000000000000000000000000000000000000a00000000000000000417001b000000000000000000000000000000000000000c000080008000000001000000000000000000000000000000000000000000000c00008000800000000000000000000000000000000083bbcae300000000000004200008000000000000000000000000000000000000000000000000000000000a00000000000000000421001b0000000000000000000000000000000000000004000100000000000000000000000000000000000000000000000000000000000a0000000000000000041d002b000000000000000000000000000000000000000c000080008000000001000000000000000000000000000000000000000000000c000080008000000000000000000000000000000000c9a6bc8e00000000000004020008000000000000000000000000000000000000000000000000000000000a00000000000000000221002b000000000000000000000000000000000000000c000002000200000001040000000000000000000000000000000000000000000c000002000200000000000000000000000000000000000000000000000000000e000002000000000000000000000000000000000000000000000000000000000e000080000000000000010000000000000000000000000000000000000000000c000002000200000001010000000000000000000000000000000000000000000c000002000200000000000000000000000000000000000000000000000000000e0000000004000000210300000000000000000000000000000000000000000004040002000000000000000000000000000000000000000000000000000000000a0000000000000000042a00400000000000000000000000000000000000000007000000000000000000000000000000000000000000000000000000000000001a4000100002000000020000000000000000000000000000000000000000000004020000000000000000000000000000000000000000000000000000000000000a00000000000000000a2e0038000000000000000000000000000000000000000c000002000200000001800000000000000000000000000000000000000000000c000002000200000000000000000000000000000000000000000000000000000e000002000000000020020000000000000000000000000000000000000000000c000002000200000001000000000000000000000000000000000000000000000c000002000200000000000000000000000000000000000000000000000000000e000002000000000000000000000000000000000000000000000000000000000c000002000200000001010000000000000000000000000000000000000000000c0000020002000000000000000000000000000000000000000000000000000005040002000000000000000000000000000000000000000000000000000000000a0000000000000000012a002a0000000000000000000000000000000000000007000000000000000003410000000000000000000000000000000000000000000a0000000000000000023a002a000000000000000000000000000000000000000c000002000200000001010000000000000000000000000000000000000000000c000002000200000000000000000000000000000000000000000000000000000e0000000004000000210300000000000000000000000000000000000000000004040002000000000000000000000000000000000000000000000000000000000a0000000000000000042a003f00000000000000000000000000000000000000070000000000000000040000000000000000000000000000000000000000000007000000000000000004000000000000000000000000000000000000000000000e0000000000000000e0020000000000000000000000000000000000000000000c000002000200000001800000000000000000000000000000000000000000000c000002000200000000000000000000000000000000000000000000000000000e000002000000000020020000000000000000000000000000000000000000000e000000001000000001000000000000000000000000000000000000000000001a000010000200000002fcffffff00000000000000000000000000000000000004020000000000000000000000000000000000000000000000000000000000000a000000000000000004a20049000000000000000000000000000000000000000c000004000400000001000000000000000000000000000000000000000000000c000004000400000000000000000000000000000000ffffffff0000000000000e000000000800000001010000000000000000000000000000000000000000001a080004000400000002000000000000000000000000000000000000000000000c000008000800000001000000000000000000000000000000000000000000000c000008000800000000000000000000000000000000fa8be79a00000000000004040008000000000000000000000000000000000000000000000000000000000a000000000000000004510099000000000000000000000000000000000000000c000004000400000001640100000000000000000000000000000000000000000c0000040004000000000000000000000000000000000000000000000000000004020004000000000000000000000000000000000000000000000000000000000a000000000000000002a20055000000000000000000000000000000000000000e000010000000000060010000000000000000000000000000000000000000000c000001000100000001240000000000000000000000000000000000000000000c0000010001000000000000000000000000000000000000000000000000000007000000000000000003b30100000000000000000000000000000000000000000c000002000200000001ffffffffffffffffffffffffffffffff0000000000000c000002000200000000ffffffff0000000000000000000000000000000000000e0000020000000000600300000000000000000000000000000000000000000004010002000000000000000000000000000000000000000000000000000000000a0000000000000000065e00a7000000000000000000000000000000000000000c000001000100000001640000000000000000000000000000000000000000000c0000010001000000000000000000000000000000000000000000000000000007000000000000000003b30100000000000000000000000000000000000000000c000002000200000001000000000000000000000000000000000000000000000c000002000200000000ffffffffffffffffffffffffffffffff0000000000001a0100020002000000020000000000000000000000000000000000000000000004010002000000000000000000000000000000000000000000000000000000000a0000000000000000046600ab000000000000000000000000000000000000000c000001000100000001840000000000000000000000000000000000000000000c0000010001000000000000000000000000000000000000000000000000000007000000000000000003b30100000000000000000000000000000000000000000e0000000002000000610300000000000000000000000000000000000000000004010002000000000000000000000000000000000000000000000000000000000a0000000000000000066c00af000000000000000000000000000000000000000c000001000100000001a40000000000000000000000000000000000000000000c0000010001000000000000000000000000000000000000000000000000000007000000000000000003b30100000000000000000000000000000000000000000c000004000400000001ffffffffffffffff00000000000000000000000000000c000004000400000000000000000000000000000000000000000000000000000e000000000200000061010000000000000000000000000000000000000000000e0000040000000000600200000000000000000000000000000000000000000004010004000000000000000000000000000000000000000000000000000000000a000000000000000008a20075000000000000000000000000000000000000001a000002000200000002ffffffff000000000000000000000000000000000000020000010001000000000400000000000000000000000000000000000000000007000000000000000003b80000000000000000000000000000000000000000000a00000000000000000279007a000000000000000000000000000000000000000a000000000000000001b600b6000000000000000000000000000000000000000c000001000100000001c40000000000000000000000000000000000000000000c0000010001000000000000000000000000000000000000000000000000000007000000000000000003b30100000000000000000000000000000000000000000e0000000002000000610200000000000000000000000000000000000000000004010002000000000000000000000000000000000000000000000000000000000a000000000000000008a200800000000000000000000000000000000000000002000001000100000000040000000000000000000000000000000000000000000e000000000200000001000000000000000000000000000000000000000000001a000002000200000002ffffffff00000000000000000000000000000000000007000000000000000003b80000000000000000000000000000000000000000000a000000000000000002850086000000000000000000000000000000000000000a000000000000000001b600b6000000000000000000000000000000000000000c000001000100000001e40000000000000000000000000000000000000000000c0000010001000000000000000000000000000000000000000000000000000007000000000000000003b30100000000000000000000000000000000000000000e0000000002000000610300000000000000000000000000000000000000000004010002000000000000000000000000000000000000000000000000000000000a0000000000000000068c00b3000000000000000000000000000000000000000c000001000100000001640100000000000000000000000000000000000000000c0000010001000000000000000000000000000000000000000000000000000007000000000000000003b30100000000000000000000000000000000000000000e0000000002000000610200000000000000000000000000000000000000000004010002000000000000000000000000000000000000000000000000000000000a000000000000000008a200920000000000000000000000000000000000000002000001000100000000040000000000000000000000000000000000000000000e000000000200000001000000000000000000000000000000000000000000001a000002000200000002ffffffff00000000000000000000000000000000000007000000000000000003b80000000000000000000000000000000000000000000a000000000000000002970098000000000000000000000000000000000000000a000000000000000001b600b6000000000000000000000000000000000000000a0000000000000000019d009d000000000000000000000000000000000000000c000002000200000001000000000000000000000000000000000000000000000c000002000200000000000000000000000000000000bcfc1cd700000000000004040002000000000000000000000000000000000000000000000000000000000a0000000000000000049d00a2000000000000000000000000000000000000000c000002000200000001000000000000000000000000000000000000000000000c000002000200000000000000000000000000000000000000000000000000000e000002000000000000000000000000000000000000000000000000000000000e0000000000000000e10200000000000000000000000000000000000000000007000000000000000000000000000000000000000000000000000000000000000c000002000200000001000000000000000000000000000000000000000000000c000002000200000000000000000000000000000000000000000000000000000e000002000000000000000000000000000000000000000000000000000000000e0000000000000000e10200000000000000000000000000000000000000000007000000000000000004000000000000000000000000000000000000000000000c000002000200000001000000000000000000000000000000000000000000000c000002000200000000000000000000000000000000000000000000000000000e000002000000000000000000000000000000000000000000000000000000000a000000000000000001b600b6000000000000000000000000000000000000000c000002000200000001000000000000000000000000000000000000000000000c000002000200000000000000000000000000000000000000000000000000000e000002000000000000000000000000000000000000000000000000000000000a000000000000000001b600b6000000000000000000000000000000000000000c000002000200000001000000000000000000000000000000000000000000000c000002000200000000000000000000000000000000000000000000000000000e000002000000000000000000000000000000000000000000000000000000000a000000000000000001b600b6000000000000000000000000000000000000000c000002000200000001000000000000000000000000000000000000000000000c000002000200000000000000000000000000000000000000000000000000000e000002000000000000000000000000000000000000000000000000000000000e0000000000000000e10200000000000000000000000000000000000000000007000000000000000004000000000000000000000000000000000000000000000e0000000000000000e0080000000000000000000000000000000000000000000201000000800000000000000000000000000000000000000000000000000000020000800010000000001f0000000000000000000000000000000000000000000c000008000800000001000000000000000000000000000000000000000000000c000008000800000000000000000000000000000000000000000000000000000c000004000400000001000000000000000000000000000000000000000000000c00000400040000000000000000000000000000000000000080000000000000020400000000010000000000000000000000000000000000000000000000000004100002000000000000000000000000000000000000000000000000000000000a000000000000000002c300c20000000000000000000000000000000000000002080000000001000000000000000000000000000000000000000000000000000e000002000000000060090000000000000000000000000000000000000000001a020004002000000002000000000000000000000000000000000000000000001a10000400400000000200000000000000000000000000000000000000000000020400000010000000000000000000000000000000000000000000000000000004400020000000000000000000000000000000000000000000000000000000000a000000000000000008ca00c90000000000000000000000000000000000000002080000001000000000000000000000000000000000000000000000000000001a4000200008000000080000000000000000000000000000000000000000000004080004000000000000000000000000000000000000000000000000000000000a000000000000000004ce00cd00000000000000000000000000000000000000020001000010000000000000000000000000000000000000000000000000000004100000000000000000000000000000000000000000000000000000000000000a00000000000000000ad00043010000000000000000000000000000000000000e0000800000000000600800000000000000000000000000000000000000000002000080000200000000200000000000000000000000000000000000000000000e00000200000000006007000000000000000000000000000000000000000000020200000001000000000000000000000000000000000000000000000000000007000000000000000003b301000000000000000000000000000000000000000002010000001000000000000000000000000000000000000000000000000000000c000020002000000001ffffffffffffffff00000000000000000000000000000c0000200020000000000000000000000000000000000000000000000000000004100020000000000000000000000000000000000000000000000000000000000a000000000000000006da004801000000000000000000000000000000000000020000100004000000001f0000000000000000000000000000000000000000000c000002000200000001e0ffffffffffffffffffffffffffffff0000000000000c000002000200000000ffffffffffffffffffffffffffffffff0000000000001a04000200040000000200000000000000000000000000000000000000000000020000040004000000003f0000000000000000000000000000000000000000000e000002000000000060010000000000000000000000000000000000000000001a040002000400000002000000000000000000000000000000000000000000000e0000000002000000210200000000000000000000000000000000000000000002020004000400000000000000000000000000000000000000000000000000000c000008000800000001010000000000000000000000000000000000000000000c0000080008000000000000000000000000000000000000000000000000000004040002000000000000000000000000000000000000000000000000000000000a000000000000000002e900e7000000000000000000000000000000000000000c000008000800000001000000000000000000000000000000000000000000000c0000080008000000000000000000000000000000000000000000000000000004040020000000000000000000000000000000000000000000000000000000000a0000000000000000086801eb000000000000000000000000000000000000001a000008002000000002010000000000000000000000000000000000000000000c000008000800000001010000000000000000000000000000000000000000000c0000080008000000000000000000000000000000000000000000000000000004200008000000000000000000000000000000000000000000000000000000000a0000000000000000046801f0000000000000000000000000000000000000000e0000040000000000200200000000000000000000000000000000000000000002100000000100000000000000000000000000000000000000000000000000000e000010000000000060040000000000000000000000000000000000000000000e0000020000000000600300000000000000000000000000000000000000000007000000000000000003c70100000000000000000000000000000000000000000e000000000400000061040000000000000000000000000000000000000000000e0000000002000000610700000000000000000000000000000000000000000002020004000200000000000000000000000000000000000000000000000000000e000000000800000061080000000000000000000000000000000000000000000e0000000010000000610900000000000000000000000000000000000000000004020010000000000000000000000000000000000000000000000000000000000a0000000000000000084301fc000000000000000000000000000000000000000c000010001000000001000000000000000000000000000000000000000000000c000010001000000000000000000000000000000000000000000000000000001a0000040002000000021f0000000000000000000000000000000000000000000e0000020000000000600200000000000000000000000000000000000000000002000008000800000000400000000000000000000000000000000000000000000e0000000002000000610300000000000000000000000000000000000000000002000002000200000000200000000000000000000000000000000000000000000e0000020000000000600700000000000000000000000000000000000000000018000004000200000002050000000000000000000000000000000000000000000e000002000000000060050000000000000000000000000000000000000000000e0000080000000000600600000000000000000000000000000000000000000004020000000000000000000000000000000000000000000000000000000000000a000000000000000004180109010000000000000000000000000000000000000e0000100000000000600900000000000000000000000000000000000000000018000010000200000000050000000000000000000000000000000000000000000e00000200000000006008000000000000000000000000000000000000000000020800020001000000000000000000000000000000000000000000000000000007000000000000000003b30100000000000000000000000000000000000000000e000000000200000061070000000000000000000000000000000000000000000e00000000040000006108000000000000000000000000000000000000000000020200040002000000000000000000000000000000000000000000000000000007000000000000000003c70100000000000000000000000000000000000000000e000000001000000061090000000000000000000000000000000000000000000e0000000008000000610600000000000000000000000000000000000000000002000010001000000000010000000000000000000000000000000000000000000e0000000002000000610500000000000000000000000000000000000000000004100002000000000000000000000000000000000000000000000000000000000a000000000000000002090118010000000000000000000000000000000000000e000000000200000061070000000000000000000000000000000000000000000e000000000400000061040000000000000000000000000000000000000000000e0000000002000000610200000000000000000000000000000000000000000004020000000000000000000000000000000000000000000000000000000000000a0000000000000000043b011d010000000000000000000000000000000000000e000000000200000061010000000000000000000000000000000000000000001a040002000200000002000000000000000000000000000000000000000000000e00000200000000006009000000000000000000000000000000000000000000020800020001000000000000000000000000000000000000000000000000000007000000000000000003b30100000000000000000000000000000000000000000e0000000002000000610200000000000000000000000000000000000000000018000002000200000000030000000000000000000000000000000000000000000c000004000400000001000100000000000000000000000000000000000000000c0000040004000000000000000000000000000000000000000000000000000004040002000400000000000000000000000000000000000000000000000000000c000008000800000001ffffffffffffffffffffffffffffffff0000000000000c000008000800000000ffffffffffffffffffffffffffffffff00000000000018040008000400000000000000000000000000000000000000000000000000001a010004000400000002000000000000000000000000000000000000000000000e0000040000000000600800000000000000000000000000000000000000000018020008000200000002000000000000000000000000000000000000000000000e000002000000000060060000000000000000000000000000000000000000000e000000000200000061070000000000000000000000000000000000000000000e0000000004000000610900000000000000000000000000000000000000000002020004000200000000000000000000000000000000000000000000000000000e000002000000000060090000000000000000000000000000000000000000000202000000010000000000000000000000000000000000000000000000000000070000000000000000039f0100000000000000000000000000000000000000000e000000000200000061060000000000000000000000000000000000000000001a010002000200000002000000000000000000000000000000000000000000000e000000000400000061080000000000000000000000000000000000000000001a040002000100000004000000000000000000000000000000000000000000000e0000000002000000610900000000000000000000000000000000000000000007000000000000000003c70100000000000000000000000000000000000000000e000000000400000061040000000000000000000000000000000000000000000e00000000020000006103000000000000000000000000000000000000000000020400020002000000000000000000000000000000000000000000000000000002000002000200000000200000000000000000000000000000000000000000000c000001000100000001000000000000000000000000000000000000000000000c0000010001000000000000000000000000000000000000000000000000000007000000000000000003c70100000000000000000000000000000000000000000e0000000000000000e10800000000000000000000000000000000000000000007000000000000000000000000000000000000000000000000000000000000000c000002000200000001000000000000000000000000000000000000000000000c000002000200000000000000000000000000000000000000000000000000000e000002000000000000000000000000000000000000000000000000000000000e0000000000000000e10800000000000000000000000000000000000000000007000000000000000004000000000000000000000000000000000000000000000c000002000200000001000000000000000000000000000000000000000000000c000002000200000000000000000000000000000000717b484e0000000000000e000002000000000020000000000000000000000000000000000000000000000c000001000100000001410000000000000000000000000000000000000000000c000001000100000000000000000000000000000000000000000000000000000c000002000200000001040000000000000000000000000000000000000000000c0000020002000000000000000000000000000000000000000000000000000007000000000000000003c70100000000000000000000000000000000000000000c000002000200000001240000000000000000000000000000000000000000000c000002000200000000000000000000000000000000000000000000000000000e000002000000000000000000000000000000000000000000000000000000000c000002000200000001000000000000000000000000000000000000000000000c000002000200000000000000000000000000000000000000000000000000000c000004000400000001200000000000000000000000000000000000000000000c000004000400000000000000000000000000000000000000000000000000000c000008000800000001010000000000000000000000000000000000000000000c0000080008000000000000000000000000000000000000000000000000000002020000001000000000000000000000000000000000000000000000000000000a0000000000000000015e015e01000000000000000000000000000000000000022000000010000000000000000000000000000000000000000000000000000004400000000000000000000000000000000000000000000000000000000000000a00000000000000000a5e018801000000000000000000000000000000000000180000100020000000000500000000000000000000000000000000000000000008200004002000000000000000000000000000000000000000000000000000000e200000004000000021000000000000000000000000000000000000000000000e200040000000000000010000000000000000000000000000000000000000000200001000200000000001000000000000000000000000000000000000000000020800000040000000000000000000000000000000000000000000000000000004200010000000000000000000000000000000000000000000000000000000000a0000000000000000025b01660100000000000000000000000000000000000002020000004000000000000000000000000000000000000000000000000000000a0000000000000000015b015b010000000000000000000000000000000000000c000002000200000001000000000000000000000000000000000000000000000c000002000200000000000000000000000000000000717b484e0000000000000e000002000000000020000000000000000000000000000000000000000000000c000001000100000001410000000000000000000000000000000000000000000c000001000100000000000000000000000000000000000000000000000000000c000002000200000001040000000000000000000000000000000000000000000c0000020002000000000000000000000000000000000000000000000000000007000000000000000003c70100000000000000000000000000000000000000000c000002000200000001240000000000000000000000000000000000000000000c000002000200000000000000000000000000000000000000000000000000000e000002000000000000000000000000000000000000000000000000000000000c000002000200000001000000000000000000000000000000000000000000000c000002000200000000000000000000000000000000000000000000000000000c000004000400000001200000000000000000000000000000000000000000000c000004000400000000000000000000000000000000000000000000000000000c000008000800000001010000000000000000000000000000000000000000000c0000080008000000000000000000000000000000000000000000000000000002020000001000000000000000000000000000000000000000000000000000000a0000000000000000017e017e01000000000000000000000000000000000000022000000010000000000000000000000000000000000000000000000000000004400000000000000000000000000000000000000000000000000000000000000a00000000000000000a7e019301000000000000000000000000000000000000180000100020000000000500000000000000000000000000000000000000000008200004002000000000000000000000000000000000000000000000000000000e200000004000000021000000000000000000000000000000000000000000000e200040000000000000010000000000000000000000000000000000000000000200001000200000000001000000000000000000000000000000000000000000020800000040000000000000000000000000000000000000000000000000000004200010000000000000000000000000000000000000000000000000000000000a0000000000000000027b01860100000000000000000000000000000000000002020000004000000000000000000000000000000000000000000000000000000a0000000000000000017b017b010000000000000000000000000000000000000c000002000200000001ffffffffffffffffffffffffffffffff0000000000000c000002000200000000ffffffffffffffffffffffff000000000000000000000e000000000400000001020000000000000000000000000000000000000000001a040002000200000002000000000000000000000000000000000000000000000c000004000400000001000000000000000000000000000000000000000000000c000004000400000000000000000000000000000000ffffffff0000000000000e000000000800000021010000000000000000000000000000000000000000001a080004000400000002000000000000000000000000000000000000000000001a040002000200000004000000000000000000000000000000000000000000000e000002000000000000020000000000000000000000000000000000000000000a0000000000000000019d019d010000000000000000000000000000000000000c000002000200000001ffffffffffffffffffffffffffffffff0000000000000c000002000200000000ffffffffffffffffffffffff000000000000000000000e000000000400000001020000000000000000000000000000000000000000001a040002000200000002000000000000000000000000000000000000000000000c000004000400000001000000000000000000000000000000000000000000000c000004000400000000000000000000000000000000ffffffff0000000000000e000000000800000021010000000000000000000000000000000000000000001a080004000400000002000000000000000000000000000000000000000000001a040002000200000004000000000000000000000000000000000000000000000e000002000000000000020000000000000000000000000000000000000000000e0000000000000000e10800000000000000000000000000000000000000000007000000000000000004000000000000000000000000000000000000000000000c000002000200000001e0ffffffffffffffffffffffffffffff0000000000000c000002000200000000ffffffffffffffffffffffffffffffff0000000000001a010002000200000002000000000000000000000000000000000000000000000c000004000400000001200000000000000000000000000000000000000000000c0000040004000000000000000000000000000000000000000000000000000008020004000400000000000000000000000000000000000000000000000000001a0000010002000000021f00000000000000000000000000000000000000000018000002000800000000030000000000000000000000000000000000000000000e0400000002000000210000000000000000000000000000000000000000000004080000000000000000000000000000000000000000000000000000000000000a000000000000000004b101aa010000000000000000000000000000000000000c000010001000000001000100000000000000000000000000000000000000000c0000100010000000000000000000000000000000000000000000000000000004100008001000000000000000000000000000000000000000000000000000000e04000000040000002101000000000000000000000000000000000000000000181000040004000000020000000000000000000000000000000000000000000018080002000200000000000000000000000000000000000000000000000000001a04000200020000000400000000000000000000000000000000000000000000020200000001000000000000000000000000000000000000000000000000000007000000000000000000000000000000000000000000000000000000000000000c000002000200000001e0ffffffffffffffffffffffffffffff0000000000000c000002000200000000ffffffffffffffffffffffffffffffff0000000000001a010002000200000002000000000000000000000000000000000000000000000c000004000400000001200000000000000000000000000000000000000000000c0000040004000000000000000000000000000000000000000000000000000008020004000400000000000000000000000000000000000000000000000000001a0000010002000000021f00000000000000000000000000000000000000000018000002000800000000030000000000000000000000000000000000000000000e0400000002000000010000000000000000000000000000000000000000000004080000000000000000000000000000000000000000000000000000000000000a000000000000000004c501be010000000000000000000000000000000000000c000010001000000001000100000000000000000000000000000000000000000c0000100010000000000000000000000000000000000000000000000000000004100008001000000000000000000000000000000000000000000000000000000e04000000040000000101000000000000000000000000000000000000000000181000040004000000020000000000000000000000000000000000000000000018080002000200000000000000000000000000000000000000000000000000001a04000200020000000400000000000000000000000000000000000000000000020200000001000000000000000000000000000000000000000000000000000007000000000000000000000000000000000000000000000000000000000000000c000004000400000001e0ffffffffffffffffffffffffffffff0000000000000c000004000400000000ffffffffffffffffffffffffffffffff0000000000001a020004000400000002000000000000000000000000000000000000000000000c000008000800000001200000000000000000000000000000000000000000000c0000080008000000000000000000000000000000000000000000000000000008040008000400000000000000000000000000000000000000000000000000001a0000020002000000021f00000000000000000000000000000000000000000018000002000200000000030000000000000000000000000000000000000000000c000008000800000001000100000000000000000000000000000000000000000c0000080008000000000000000000000000000000000000000000000000000004080002001000000000000000000000000000000000000000000000000000000c000020002000000001ffffffffffffffffffffffffffffffff0000000000000c000020002000000000ffffffffffffffffffffffffffffffff000000000000020100000008000000000000000000000000000000000000000000000000000004020000000000000000000000000000000000000000000000000000000000000a000000000000000004dc01d70100000000000000000000000000000000000018100020000800000000000000000000000000000000000000000000000000000e040000004000000021000000000000000000000000000000000000000000001a4000080008000000020000000000000000000000000000000000000000000018020001004000000002000000000000000000000000000000000000000000001a400008000800000004000000000000000000000000000000000000000000000e0400000040000000210100000000000000000000000000000000000000000004020000000000000000000000000000000000000000000000000000000000000a000000000000000004e301df01000000000000000000000000000000000000181000010010000000000000000000000000000000000000000000000000000018020020000200000002000000000000000000000000000000000000000000001a400002000200000002000000000000000000000000000000000000000000001a100002004000000004000000000000000000000000000000000000000000000e040040000000000020010000000000000000000000000000000000000000000e040008000000000020000000000000000000000000000000000000000000000700000000000000000000000000000000000000000000000000000000000000"
        }
      },
      "factoryDependencies": {},
      "hash": "94263c1276ef3b4eb686695b4265854bd266ed8baac18d2e520b7b65f9fbcf29"
    }
  }
}