{
  "contracts/EIP712Types.sol": {
    "EIP712Types": {
      "abi": [
        {
          "inputs": [
            {
              "internalType": "bytes",
              "name": "signature_rsv",
              "type": "bytes"
            }
          ],
          "name": "splitSignature",
          "outputs": [
            {
              "internalType": "uint8",
              "name": "v",
              "type": "uint8"
            },
            {
              "internalType": "bytes32",
              "name": "r",
              "type": "bytes32"
            },
            {
              "internalType": "bytes32",
              "name": "s",
              "type": "bytes32"
            }
          ],
          "stateMutability": "pure",
          "type": "function"
        },
        {
          "inputs": [
            {
              "internalType": "address",
              "name": "signer",
              "type": "address"
            },
            {
              "components": [
                {
                  "internalType": "uint256",
                  "name": "chainId",
                  "type": "uint256"
                },
                {
                  "internalType": "address",
                  "name": "verifyingContract",
                  "type": "address"
                },
                {
                  "internalType": "address",
                  "name": "member",
                  "type": "address"
                },
                {
                  "internalType": "uint256",
                  "name": "registered",
                  "type": "uint256"
                },
                {
                  "internalType": "string",
                  "name": "eula",
                  "type": "string"
                },
                {
                  "internalType": "string",
                  "name": "profile",
                  "type": "string"
                }
              ],
              "internalType": "struct EIP712Types.EIP712MemberRegister",
              "name": "obj",
              "type": "tuple"
            },
            {
              "internalType": "bytes",
              "name": "signature",
              "type": "bytes"
            }
          ],
          "name": "verify",
          "outputs": [
            {
              "internalType": "bool",
              "name": "",
              "type": "bool"
            }
          ],
          "stateMutability": "pure",
          "type": "function"
        }
      ],
      "evm": {
        "bytecode": {
          "object": "0e0000000000000000e0000000000000000000000000000000000000000000000c0000020002000000010000000000000000ffffffffffffffff0000000000000c000002000200000000ffffffffffffffffffffffffffffffff0000000000000e000000000400000001000000000000000000000000000000000000000000001a040002002000000002000000000000000000000000000000000000000000000c000008000800000001000000000000000001000000000000000000000000000c000008000800000000000000000000000000000000000000000000000000000c000000020002000001000000000000000000000000000000000000000000000c000000020002000000000000000000000000000000000000000000000000000c000080008000000001010000000000000000000000000000000000000000000c00008000800000000000000000000000000000000000000000000000000000028000000010000000000000000000000000000000000000000000000000000004200008000000000000000000000000000000000000000000000000000000000a0000000000000000040f000e0000000000000000000000000000000000000002000200001000000000000000000000000000000000000000000000000000000c0000020002000000017c7ee91ae51bb0ed9b9e413333bf74f70000000000000c000002000200000000b75ee1170f6b7c3ce4583c65d82198c40000000000000502000000000100000100000000000000000000000000000000000000000000028000000040000000000000000000000000000000000000000000000000000004000100000000000000000000000000000000000000000000000000000000000a00000000000000000416001500000000000000000000000000000000000000020002000040000000000000000000000000000000000000000000000000000004000180000000000000000000000000000000000000000000000000000000000a00000000000000000418001c000000000000000000000000000000000000000c000080008000000001000000000000000000000000000000000000000000000c00008000800000000000000000000000000000000083bbcae300000000000004200008000000000000000000000000000000000000000000000000000000000a00000000000000000422001c0000000000000000000000000000000000000004000100000000000000000000000000000000000000000000000000000000000a0000000000000000041e002d000000000000000000000000000000000000000c000080008000000001000000000000000000000000000000000000000000000c000080008000000000000000000000000000000000c9a6bc8e00000000000004040008000000000000000000000000000000000000000000000000000000000a00000000000000000222002d000000000000000000000000000000000000000c000002000200000001040000000000000000000000000000000000000000000c000002000200000000000000000000000000000000000000000000000000000e000002000000000000000000000000000000000000000000000000000000000e000080000000000000010000000000000000000000000000000000000000000c000002000200000001010000000000000000000000000000000000000000000c000002000200000000000000000000000000000000000000000000000000000e0000000004000000210300000000000000000000000000000000000000000004040002000000000000000000000000000000000000000000000000000000000a0000000000000000042b0049000000000000000000000000000000000000000e0000000000000000e10000000000000000000000000000000000000000000007000000000000000000000000000000000000000000000000000000000000001a400010000400000002000000000000000000000000000000000000000000001a000004000400000002010000000000000000000000000000000000000000000c000010001000000001010000000000000000000000000000000000000000000c0000100010000000000000000000000000000000000000000000000000000004040010000000000000000000000000000000000000000000000000000000000a00000000000000000433003f000000000000000000000000000000000000000c000004000400000001800000000000000000000000000000000000000000000c000004000400000000000000000000000000000000000000000000000000000e000004000000000020020000000000000000000000000000000000000000000c000004000400000001ad1417c1011a3f4efa47cf3cc24580610000000000000c00000400040000000078e5daaca78337d6674f0785d4025acd000000000000140000000008000000000500000000000000000000000000000000000000000005040008000000000000000000000000000000000000000000000000000000000c000004000400000001000000000000000000000000000000000000000000000c000004000400000000000000000000000000000000000000000000000000000e0000040000000000000000000000000000000000000000000000000000000005020010000000000000000000000000000000000000000000000000000000000a0000000000000000012b002b000000000000000000000000000000000000000e00001000000000006001000000000000000000000000000000000000000000070000000000000000034b0000000000000000000000000000000000000000000a000000000000000002430042000000000000000000000000000000000000000a0000000000000000012b002b000000000000000000000000000000000000000e000000000200000021030000000000000000000000000000000000000000000e0000000004000000610100000000000000000000000000000000000000000004020004000000000000000000000000000000000000000000000000000000000a0000000000000000042b0047000000000000000000000000000000000000000e0000000000000000e10000000000000000000000000000000000000000000007000000000000000004000000000000000000000000000000000000000000000e0000000000000000e10000000000000000000000000000000000000000000007000000000000000004000000000000000000000000000000000000000000000e0000000000000000e0080000000000000000000000000000000000000000000c000002000200000001800000000000000000000000000000000000000000000c000002000200000000000000000000000000000000000000000000000000000e000002000000000020020000000000000000000000000000000000000000000e000000000400000001000000000000000000000000000000000000000000001a000004000200000002fcffffff00000000000000000000000000000000000004020000000000000000000000000000000000000000000000000000000000000a0000000000000000044a0153000000000000000000000000000000000000001a000004001000000002ffffffff0000000000000000000000000000000000000c000004000400000001000000000000000000000000000000000000000000000c000004000400000000000000000000000000000000ffffffff0000000000000e000000000800000001010000000000000000000000000000000000000000001a080004000400000002000000000000000000000000000000000000000000000c000008000800000001000000000000000000000000000000000000000000000c000008000800000000000000000000000000000000b28cc6480000000000000e0000100000000000600500000000000000000000000000000000000000000004040008000000000000000000000000000000000000000000000000000000000a0000000000000000045d00f8000000000000000000000000000000000000000c000004000400000001640000000000000000000000000000000000000000000c0000040004000000000000000000000000000000000000000000000000000004020004000000000000000000000000000000000000000000000000000000000a0000000000000000024a0161000000000000000000000000000000000000000c000001000100000001240000000000000000000000000000000000000000000c00000100010000000000000000000000000000000000000000000000000000070000000000000000031a07000000000000000000000000000000000000000002010000000200000000000000000000000000000000000000000000000000000c000004000400000001ffffffffffffffffffffffffffffffff0000000000000c000004000400000000ffffffff0000000000000000000000000000000000000e000002000000000060020000000000000000000000000000000000000000000e0000040000000000600300000000000000000000000000000000000000000004020004000000000000000000000000000000000000000000000000000000000a0000000000000000066b0053010000000000000000000000000000000000000c000001000100000001440000000000000000000000000000000000000000000c00000100010000000000000000000000000000000000000000000000000000070000000000000000031a07000000000000000000000000000000000000000002010000004000000000000000000000000000000000000000000000000000000c000002000200000001ffffffffffffffff00000000000000000000000000000c000002000200000000000000000000000000000000000000000000000000000e000002000000000060040000000000000000000000000000000000000000000e0000000004000000610500000000000000000000000000000000000000000004400002000000000000000000000000000000000000000000000000000000000a0000000000000000084a01750000000000000000000000000000000000000004040040001000000000000000000000000000000000000000000000000000000c000020002000000001c40000000000000000000000000000000000000000000c000020002000000000000000000000000000000000000000000000000000000c000008000800000001000000000000000000000000000000000000000000000c000008000800000000000000000000000000000000000000000000000000000c000004000400000001000000000000000000000000000000000000000000000c00000400040000000000000000000000000000000000000080000000000000020400000002000000000000000000000000000000000000000000000000000004100020000000000000000000000000000000000000000000000000000000000a00000000000000000280007f0000000000000000000000000000000000000002080000000200000000000000000000000000000000000000000000000000001a10000400200000000200000000000000000000000000000000000000000000020400000010000000000000000000000000000000000000000000000000000004200000000000000000000000000000000000000000000000000000000000000a00000000000000000885008400000000000000000000000000000000000000020800000010000000000000000000000000000000000000000000000000000004200004000000000000000000000000000000000000000000000000000000000a00000000000000000488008700000000000000000000000000000000000000020200000010000000000000000000000000000000000000000000000000000004100000000000000000000000000000000000000000000000000000000000000a00000000000000000a4a018a000000000000000000000000000000000000000c000002000200000001400100000000000000000000000000000000000000000c000002000200000000000000000000000000000000000000000000000000000e0000020000000000200200000000000000000000000000000000000000000002000040000100000000240000000000000000000000000000000000000000000e00004000000000006006000000000000000000000000000000000000000000070000000000000000031a0700000000000000000000000000000000000000000e000001000000000020040000000000000000000000000000000000000000000e000000000200000061060000000000000000000000000000000000000000000200000200010000000044000000000000000000000000000000000000000000070000000000000000031a0700000000000000000000000000000000000000000e0000000002000000610300000000000000000000000000000000000000000004010002000000000000000000000000000000000000000000000000000000000a000000000000000006970057010000000000000000000000000000000000000e000001000000000020050000000000000000000000000000000000000000000e000000000200000061060000000000000000000000000000000000000000000200000200010000000064000000000000000000000000000000000000000000070000000000000000031a0700000000000000000000000000000000000000000e0000000002000000610300000000000000000000000000000000000000000004010002000000000000000000000000000000000000000000000000000000000a0000000000000000069e005b010000000000000000000000000000000000000e000001000000000020060000000000000000000000000000000000000000000e000000000200000061060000000000000000000000000000000000000000000200000200010000000084000000000000000000000000000000000000000000070000000000000000031a0700000000000000000000000000000000000000000e000001000000000020070000000000000000000000000000000000000000000e0000000002000000610600000000000000000000000000000000000000000002000002000100000000a4000000000000000000000000000000000000000000070000000000000000031a0700000000000000000000000000000000000000000e000000000200000061040000000000000000000000000000000000000000000e0000000004000000610600000000000000000000000000000000000000000004010002000000000000000000000000000000000000000000000000000000000a0000000000000000084a01aa0000000000000000000000000000000000000002000004000200000000040000000000000000000000000000000000000000000e0000020000000000600500000000000000000000000000000000000000000002020001000100000000000000000000000000000000000000000000000000000e000000000200000001000000000000000000000000000000000000000000001a000002000200000002ffffffff00000000000000000000000000000000000007000000000000000003600100000000000000000000000000000000000000000a000000000000000002b100b2000000000000000000000000000000000000000a0000000000000000015e015e010000000000000000000000000000000000000e000001000000000020080000000000000000000000000000000000000000000e0000000002000000610600000000000000000000000000000000000000000002000002000100000000c4000000000000000000000000000000000000000000070000000000000000031a0700000000000000000000000000000000000000000e0000000002000000610400000000000000000000000000000000000000000004010002000000000000000000000000000000000000000000000000000000000a0000000000000000084a01b9000000000000000000000000000000000000000e0000000002000000610500000000000000000000000000000000000000000002020001000100000000000000000000000000000000000000000000000000000e000000000200000001000000000000000000000000000000000000000000001a000002000200000002ffffffff00000000000000000000000000000000000007000000000000000003600100000000000000000000000000000000000000000a000000000000000002bf00c0000000000000000000000000000000000000000a0000000000000000015e015e010000000000000000000000000000000000000e000001000000000020090000000000000000000000000000000000000000000c000001000100000001640000000000000000000000000000000000000000000c00000100010000000000000000000000000000000000000000000000000000070000000000000000031a0700000000000000000000000000000000000000000e0000000002000000610400000000000000000000000000000000000000000004010002000000000000000000000000000000000000000000000000000000000a0000000000000000084a01c70000000000000000000000000000000000000002000001000100000000040000000000000000000000000000000000000000000e000000000200000001000000000000000000000000000000000000000000001a000002000200000002ffffffff00000000000000000000000000000000000007000000000000000003600100000000000000000000000000000000000000000a000000000000000002cc00cd000000000000000000000000000000000000000a0000000000000000015e015e0100000000000000000000000000000000000002010000000200000000000000000000000000000000000000000000000000000e0000000001000000610200000000000000000000000000000000000000000007000000000000000003a90200000000000000000000000000000000000000000a000000000000000002d100d2000000000000000000000000000000000000000a0000000000000000015e015e010000000000000000000000000000000000000c000004000400000001000000000000000000000000000000000000000000000c000004000400000000000000000000000000000000000000000000000000000c000002000200000001010000000000000000000000000000000000000000000c000002000200000000000000000000000000000000000000000000000000000e0000020000000000600400000000000000000000000000000000000000000004010000000000000000000000000000000000000000000000000000000000000a00000000000000000ada00d90000000000000000000000000000000000000002040000000200000000000000000000000000000000000000000000000000001a000002000100000002010000000000000000000000000000000000000000000e000000000200000021020000000000000000000000000000000000000000000e000002000000000060030000000000000000000000000000000000000000000e00000400000000006001000000000000000000000000000000000000000000070000000000000000032e0700000000000000000000000000000000000000000c000002000200000001200000000000000000000000000000000000000000000c000002000200000000000000000000000000000000000000000000000000000e000002000000000060020000000000000000000000000000000000000000000e000002000000000000000000000000000000000000000000000000000000000e000000000200000061010000000000000000000000000000000000000000000a000000000000000001e700e70000000000000000000000000000000000000004040000000000000000000000000000000000000000000000000000000000000a00000000000000000ae70048010000000000000000000000000000000000000e0000020000000000600600000000000000000000000000000000000000000018000002000400000000050000000000000000000000000000000000000000000e000004000000000060050000000000000000000000000000000000000000000e00000000020000006103000000000000000000000000000000000000000000020200040001000000000000000000000000000000000000000000000000000007000000000000000003060700000000000000000000000000000000000000000e000000000200000061020000000000000000000000000000000000000000000e0000000004000000610500000000000000000000000000000000000000000008040002000200000000000000000000000000000000000000000000000000000e020001000000000000010000000000000000000000000000000000000000000e0000000008000000610600000000000000000000000000000000000000000002000008000200000000010000000000000000000000000000000000000000000e0000000004000000610400000000000000000000000000000000000000000004020008000000000000000000000000000000000000000000000000000000000a000000000000000002e500f6000000000000000000000000000000000000000e000000000400000061010000000000000000000000000000000000000000000a000000000000000001e500e5000000000000000000000000000000000000000c000002000200000001000000000000000000000000000000000000000000000c0000020002000000000000000000000000000000000358bba700000000000004040002000000000000000000000000000000000000000000000000000000000a000000000000000004fc004a010000000000000000000000000000000000000c000002000200000001240000000000000000000000000000000000000000000c0000020002000000000000000000000000000000000000000000000000000004100002000000000000000000000000000000000000000000000000000000000a00000000000000000c00014f010000000000000000000000000000000000000c000001000100000001240000000000000000000000000000000000000000000c00000100010000000000000000000000000000000000000000000000000000070000000000000000031a0700000000000000000000000000000000000000000c000002000200000001ffffffffffffffff00000000000000000000000000000c0000020002000000000000000000000000000000000000000000000000000004010002000000000000000000000000000000000000000000000000000000000a0000000000000000084f01070100000000000000000000000000000000000002000001000100000000040000000000000000000000000000000000000000000e0000000002000000610500000000000000000000000000000000000000000007000000000000000003600100000000000000000000000000000000000000000a0000000000000000020b010c010000000000000000000000000000000000000a0000000000000000015e015e0100000000000000000000000000000000000002010000000200000000000000000000000000000000000000000000000000000c000004000400000001000000000000000000000000000000000000000000000c000004000400000000000000000000000000000000000000000000000000000e000004000000000060090000000000000000000000000000000000000000000e000004000000000060080000000000000000000000000000000000000000000e000004000000000060060000000000000000000000000000000000000000000e000004000000000060070000000000000000000000000000000000000000000c000000000400000001c00000000000000000000000000000000000000000000e00000400000000006005000000000000000000000000000000000000000000020400000001000000000000000000000000000000000000000000000000000007000000000000000003430200000000000000000000000000000000000000000a000000000000000002180119010000000000000000000000000000000000000a0000000000000000015e015e010000000000000000000000000000000000000e00000000040000006105000000000000000000000000000000000000000000020000040002000000004000000000000000000000000000000000000000000002000004000400000000200000000000000000000000000000000000000000000c000008000800000001200000000000000000000000000000000000000000000c0000080008000000000000000000000000000000000000000000000000000008040008000400000000000000000000000000000000000000000000000000000e0000080000000000600300000000000000000000000000000000000000000008020008000200000000000000000000000000000000000000000000000000000e020000000200000061010000000000000000000000000000000000000000000e000002000000000060050000000000000000000000000000000000000000000e040000000200000061010000000000000000000000000000000000000000000e000002000000000060020000000000000000000000000000000000000000000e000000000200000061070000000000000000000000000000000000000000001a000002000100000002ff0000000000000000000000000000000000000000000e000000000200000021020000000000000000000000000000000000000000000e00000200000000006004000000000000000000000000000000000000000000070000000000000000032e0700000000000000000000000000000000000000000e0000000002000000610400000000000000000000000000000000000000000002000002000200000000200000000000000000000000000000000000000000000e00000000010000006102000000000000000000000000000000000000000000070000000000000000032e0700000000000000000000000000000000000000000e0000000002000000610400000000000000000000000000000000000000000002000002000200000000400000000000000000000000000000000000000000000e00000000010000006105000000000000000000000000000000000000000000070000000000000000032e0700000000000000000000000000000000000000000c000002000200000001600000000000000000000000000000000000000000000c000002000200000000000000000000000000000000000000000000000000000e000002000000000000000000000000000000000000000000000000000000000c000002000200000001030000000000000000000000000000000000000000000c000002000200000000000000000000000000000000000000000000000000000e000002000000000060020000000000000000000000000000000000000000000e000000000200000061060000000000000000000000000000000000000000000e0000020000000000600600000000000000000000000000000000000000000018000002000400000000050000000000000000000000000000000000000000000e000004000000000060050000000000000000000000000000000000000000000e00000000020000006104000000000000000000000000000000000000000000020200040001000000000000000000000000000000000000000000000000000007000000000000000003060700000000000000000000000000000000000000000e000000000200000061030000000000000000000000000000000000000000000e0000000004000000610500000000000000000000000000000000000000000008040002000200000000000000000000000000000000000000000000000000000e020001000000000000010000000000000000000000000000000000000000000e0000000002000000610600000000000000000000000000000000000000000002000002000200000000010000000000000000000000000000000000000000000e0000000004000000610200000000000000000000000000000000000000000004020004000000000000000000000000000000000000000000000000000000000a000000000000000002390148010000000000000000000000000000000000000e0000000000000000e10800000000000000000000000000000000000000000007000000000000000000000000000000000000000000000000000000000000000c000002000200000001000000000000000000000000000000000000000000000c000002000200000000000000000000000000000000000000000000000000000e000002000000000000000000000000000000000000000000000000000000000e0000000000000000e10800000000000000000000000000000000000000000007000000000000000004000000000000000000000000000000000000000000000c000002000200000001000000000000000000000000000000000000000000000c000002000200000000000000000000000000000000000000000000000000000e000002000000000000000000000000000000000000000000000000000000000a0000000000000000015e015e010000000000000000000000000000000000000c000002000200000001000000000000000000000000000000000000000000000c000002000200000000000000000000000000000000000000000000000000000e000002000000000000000000000000000000000000000000000000000000000a0000000000000000015e015e010000000000000000000000000000000000000c000002000200000001000000000000000000000000000000000000000000000c000002000200000000000000000000000000000000000000000000000000000e000002000000000000000000000000000000000000000000000000000000000a0000000000000000015e015e010000000000000000000000000000000000000c000002000200000001000000000000000000000000000000000000000000000c000002000200000000000000000000000000000000000000000000000000000e000002000000000000000000000000000000000000000000000000000000000e0000000000000000e10800000000000000000000000000000000000000000007000000000000000004000000000000000000000000000000000000000000000e0000000000000000e0080000000000000000000000000000000000000000000201000000800000000000000000000000000000000000000000000000000000020000800010000000001f0000000000000000000000000000000000000000000c000008000800000001000000000000000000000000000000000000000000000c000008000800000000000000000000000000000000000000000000000000000c000004000400000001000000000000000000000000000000000000000000000c00000400040000000000000000000000000000000000000080000000000000020400000000010000000000000000000000000000000000000000000000000004100002000000000000000000000000000000000000000000000000000000000a0000000000000000026b016a0100000000000000000000000000000000000002080000000001000000000000000000000000000000000000000000000000000e000002000000000060090000000000000000000000000000000000000000001a020004002000000002000000000000000000000000000000000000000000001a10000400400000000200000000000000000000000000000000000000000000020400000010000000000000000000000000000000000000000000000000000004400020000000000000000000000000000000000000000000000000000000000a0000000000000000087201710100000000000000000000000000000000000002080000001000000000000000000000000000000000000000000000000000001a4000200008000000080000000000000000000000000000000000000000000004080004000000000000000000000000000000000000000000000000000000000a00000000000000000476017501000000000000000000000000000000000000020001000010000000000000000000000000000000000000000000000000000004100000000000000000000000000000000000000000000000000000000000000a00000000000000000a7801e7010000000000000000000000000000000000000e0000800000000000600800000000000000000000000000000000000000000002000080000200000000200000000000000000000000000000000000000000000e000002000000000060070000000000000000000000000000000000000000000202000000010000000000000000000000000000000000000000000000000000070000000000000000031a07000000000000000000000000000000000000000002010000001000000000000000000000000000000000000000000000000000000c000020002000000001ffffffffffffffff00000000000000000000000000000c0000200020000000000000000000000000000000000000000000000000000004100020000000000000000000000000000000000000000000000000000000000a0000000000000000068201ec01000000000000000000000000000000000000020000100004000000003f0000000000000000000000000000000000000000000c000002000200000001e0ffffffffffffffffffffffffffffff0000000000000c000002000200000000ffffffffffffffffffffffffffffffff0000000000000e000002000000000060010000000000000000000000000000000000000000001a040002000400000002000000000000000000000000000000000000000000000e0000000002000000210200000000000000000000000000000000000000000002020004000400000000000000000000000000000000000000000000000000000c000008000800000001010000000000000000000000000000000000000000000c0000080008000000000000000000000000000000000000000000000000000004040002000000000000000000000000000000000000000000000000000000000a0000000000000000028f018d010000000000000000000000000000000000000c000008000800000001000000000000000000000000000000000000000000000c0000080008000000000000000000000000000000000000000000000000000004040020000000000000000000000000000000000000000000000000000000000a0000000000000000080c02910100000000000000000000000000000000000004080000000000000000000000000000000000000000000000000000000000000a00000000000000000a0c0293010000000000000000000000000000000000000e0000040000000000200200000000000000000000000000000000000000000002100000000100000000000000000000000000000000000000000000000000000e000010000000000060030000000000000000000000000000000000000000000e00000200000000006004000000000000000000000000000000000000000000070000000000000000032e0700000000000000000000000000000000000000000e000000000400000061030000000000000000000000000000000000000000000e0000000002000000610700000000000000000000000000000000000000000002020004000200000000000000000000000000000000000000000000000000000e000000000800000061080000000000000000000000000000000000000000000e0000000010000000610900000000000000000000000000000000000000000004020010000000000000000000000000000000000000000000000000000000000a000000000000000008e7019f010000000000000000000000000000000000000c000010001000000001000000000000000000000000000000000000000000000c000010001000000000000000000000000000000000000000000000000000001a0000040002000000021f0000000000000000000000000000000000000000000e0000020000000000600200000000000000000000000000000000000000000002000008000800000000400000000000000000000000000000000000000000000e0000000002000000610400000000000000000000000000000000000000000002000002000200000000200000000000000000000000000000000000000000000e0000020000000000600700000000000000000000000000000000000000000018000004000200000002050000000000000000000000000000000000000000000e000002000000000060050000000000000000000000000000000000000000000e0000080000000000600600000000000000000000000000000000000000000004020000000000000000000000000000000000000000000000000000000000000a000000000000000004bb01ac010000000000000000000000000000000000000e0000100000000000600900000000000000000000000000000000000000000018000010000200000000050000000000000000000000000000000000000000000e000002000000000060080000000000000000000000000000000000000000000208000200010000000000000000000000000000000000000000000000000000070000000000000000031a0700000000000000000000000000000000000000000e000000000200000061070000000000000000000000000000000000000000000e000000000400000061080000000000000000000000000000000000000000000202000400020000000000000000000000000000000000000000000000000000070000000000000000032e0700000000000000000000000000000000000000000e000000001000000061090000000000000000000000000000000000000000000e0000000008000000610600000000000000000000000000000000000000000002000010001000000000010000000000000000000000000000000000000000000e0000000002000000610500000000000000000000000000000000000000000004100002000000000000000000000000000000000000000000000000000000000a000000000000000002ac01bb010000000000000000000000000000000000000e000000000200000061070000000000000000000000000000000000000000000e000000000400000061030000000000000000000000000000000000000000000e0000000002000000610200000000000000000000000000000000000000000004020000000000000000000000000000000000000000000000000000000000000a000000000000000004de01c0010000000000000000000000000000000000000e000000000200000061010000000000000000000000000000000000000000001a040002000200000002000000000000000000000000000000000000000000000e000002000000000060090000000000000000000000000000000000000000000208000200010000000000000000000000000000000000000000000000000000070000000000000000031a0700000000000000000000000000000000000000000e0000000002000000610200000000000000000000000000000000000000000018000002000200000000030000000000000000000000000000000000000000000c000004000400000001000100000000000000000000000000000000000000000c0000040004000000000000000000000000000000000000000000000000000004040002000400000000000000000000000000000000000000000000000000000c000008000800000001ffffffffffffffffffffffffffffffff0000000000000c000008000800000000ffffffffffffffffffffffffffffffff00000000000018040008000400000000000000000000000000000000000000000000000000001a010004000400000002000000000000000000000000000000000000000000000e0000040000000000600800000000000000000000000000000000000000000018020008000200000002000000000000000000000000000000000000000000000e000002000000000060060000000000000000000000000000000000000000000e000000000200000061070000000000000000000000000000000000000000000e0000000004000000610900000000000000000000000000000000000000000002020004000200000000000000000000000000000000000000000000000000000e00000200000000006009000000000000000000000000000000000000000000020200000001000000000000000000000000000000000000000000000000000007000000000000000003060700000000000000000000000000000000000000000e000000000200000061060000000000000000000000000000000000000000001a010002000200000002000000000000000000000000000000000000000000000e000000000400000061080000000000000000000000000000000000000000001a040002000100000004000000000000000000000000000000000000000000000e00000000020000006109000000000000000000000000000000000000000000070000000000000000032e0700000000000000000000000000000000000000000e000000000400000061030000000000000000000000000000000000000000000e00000000020000006104000000000000000000000000000000000000000000020400020002000000000000000000000000000000000000000000000000000002000002000200000000200000000000000000000000000000000000000000000c000001000100000001000000000000000000000000000000000000000000000c00000100010000000000000000000000000000000000000000000000000000070000000000000000032e0700000000000000000000000000000000000000000e000000000100000061040000000000000000000000000000000000000000000e0000000000000000e10800000000000000000000000000000000000000000007000000000000000000000000000000000000000000000000000000000000000c000002000200000001000000000000000000000000000000000000000000000c000002000200000000000000000000000000000000000000000000000000000e000002000000000000000000000000000000000000000000000000000000000e0000000000000000e10800000000000000000000000000000000000000000007000000000000000004000000000000000000000000000000000000000000000c000002000200000001000000000000000000000000000000000000000000000c000002000200000000000000000000000000000000717b484e0000000000000e000002000000000020000000000000000000000000000000000000000000000c000001000100000001410000000000000000000000000000000000000000000c000001000100000000000000000000000000000000000000000000000000000c000002000200000001040000000000000000000000000000000000000000000c00000200020000000000000000000000000000000000000000000000000000070000000000000000032e0700000000000000000000000000000000000000000c000002000200000001240000000000000000000000000000000000000000000c000002000200000000000000000000000000000000000000000000000000000e000002000000000000000000000000000000000000000000000000000000000c000002000200000001000000000000000000000000000000000000000000000c000002000200000000000000000000000000000000000000000000000000000c000004000400000001200000000000000000000000000000000000000000000c000004000400000000000000000000000000000000000000000000000000000c000008000800000001010000000000000000000000000000000000000000000c0000080008000000000000000000000000000000000000000000000000000002020000001000000000000000000000000000000000000000000000000000000a00000000000000000102020202000000000000000000000000000000000000022000000010000000000000000000000000000000000000000000000000000004400000000000000000000000000000000000000000000000000000000000000a00000000000000000a02022c02000000000000000000000000000000000000180000100020000000000500000000000000000000000000000000000000000008200004002000000000000000000000000000000000000000000000000000000e200000004000000021000000000000000000000000000000000000000000000e200040000000000000010000000000000000000000000000000000000000000200001000200000000001000000000000000000000000000000000000000000020800000040000000000000000000000000000000000000000000000000000004200010000000000000000000000000000000000000000000000000000000000a000000000000000002ff010a0200000000000000000000000000000000000002020000004000000000000000000000000000000000000000000000000000000a000000000000000001ff01ff010000000000000000000000000000000000000c000002000200000001000000000000000000000000000000000000000000000c000002000200000000000000000000000000000000717b484e0000000000000e000002000000000020000000000000000000000000000000000000000000000c000001000100000001410000000000000000000000000000000000000000000c000001000100000000000000000000000000000000000000000000000000000c000002000200000001040000000000000000000000000000000000000000000c00000200020000000000000000000000000000000000000000000000000000070000000000000000032e0700000000000000000000000000000000000000000c000002000200000001240000000000000000000000000000000000000000000c000002000200000000000000000000000000000000000000000000000000000e000002000000000000000000000000000000000000000000000000000000000c000002000200000001000000000000000000000000000000000000000000000c000002000200000000000000000000000000000000000000000000000000000c000004000400000001200000000000000000000000000000000000000000000c000004000400000000000000000000000000000000000000000000000000000c000008000800000001010000000000000000000000000000000000000000000c0000080008000000000000000000000000000000000000000000000000000002020000001000000000000000000000000000000000000000000000000000000a00000000000000000122022202000000000000000000000000000000000000022000000010000000000000000000000000000000000000000000000000000004400000000000000000000000000000000000000000000000000000000000000a00000000000000000a22023702000000000000000000000000000000000000180000100020000000000500000000000000000000000000000000000000000008200004002000000000000000000000000000000000000000000000000000000e200000004000000021000000000000000000000000000000000000000000000e200040000000000000010000000000000000000000000000000000000000000200001000200000000001000000000000000000000000000000000000000000020800000040000000000000000000000000000000000000000000000000000004200010000000000000000000000000000000000000000000000000000000000a0000000000000000021f022a0200000000000000000000000000000000000002020000004000000000000000000000000000000000000000000000000000000a0000000000000000011f021f020000000000000000000000000000000000000c000002000200000001ffffffffffffffffffffffffffffffff0000000000000c000002000200000000ffffffffffffffffffffffff000000000000000000000e000000000400000001020000000000000000000000000000000000000000001a040002000200000002000000000000000000000000000000000000000000000c000004000400000001000000000000000000000000000000000000000000000c000004000400000000000000000000000000000000ffffffff0000000000000e000000000800000021010000000000000000000000000000000000000000001a080004000400000002000000000000000000000000000000000000000000001a040002000200000004000000000000000000000000000000000000000000000e000002000000000000020000000000000000000000000000000000000000000a000000000000000001410241020000000000000000000000000000000000000c000002000200000001ffffffffffffffffffffffffffffffff0000000000000c000002000200000000ffffffffffffffffffffffff000000000000000000000e000000000400000001020000000000000000000000000000000000000000001a040002000200000002000000000000000000000000000000000000000000000c000004000400000001000000000000000000000000000000000000000000000c000004000400000000000000000000000000000000ffffffff0000000000000e000000000800000021010000000000000000000000000000000000000000001a080004000400000002000000000000000000000000000000000000000000001a040002000200000004000000000000000000000000000000000000000000000e000002000000000000020000000000000000000000000000000000000000000e0000000000000000e10800000000000000000000000000000000000000000007000000000000000004000000000000000000000000000000000000000000000e0000000000000000e0040000000000000000000000000000000000000000000e000001000000000060040000000000000000000000000000000000000000000e00000200000000006005000000000000000000000000000000000000000000020200000001000000000000000000000000000000000000000000000000000007000000000000000003060700000000000000000000000000000000000000000e0000000002000000610400000000000000000000000000000000000000000002000002000200000000a00000000000000000000000000000000000000000000e000002000000000060040000000000000000000000000000000000000000000c000002000200000001410000000000000000000000000000000000000000000c0000020002000000000000000000000000000000000000000000000000000004010002000000000000000000000000000000000000000000000000000000000a0000000000000000044f026e020000000000000000000000000000000000000e00000000020000006105000000000000000000000000000000000000000000020000020001000000002000000000000000000000000000000000000000000007000000000000000003060700000000000000000000000000000000000000000e000001000000000060030000000000000000000000000000000000000000000e00000000020000006105000000000000000000000000000000000000000000020000020001000000004000000000000000000000000000000000000000000007000000000000000003060700000000000000000000000000000000000000000e0000000002000000610500000000000000000000000000000000000000000002000002000200000000410000000000000000000000000000000000000000000e00000100000000006005000000000000000000000000000000000000000000020200000001000000000000000000000000000000000000000000000000000007000000000000000003060700000000000000000000000000000000000000001a000001000400000002ff0000000000000000000000000000000000000000000c0000080008000000011b0000000000000000000000000000000000000000000c00000800080000000000000000000000000000000000000000000000000000020000040002000000001b00000000000000000000000000000000000000000004040008000000000000000000000000000000000000000000000000000000000a0000000000000000026202610200000000000000000000000000000000000002040000000200000000000000000000000000000000000000000000000000000c000004000400000001200000000000000000000000000000000000000000000c000004000400000000000000000000000000000000000000000000000000000e0000000008000000610400000000000000000000000000000000000000000008080004000400000000000000000000000000000000000000000000000000000e000000001000000061050000000000000000000000000000000000000000000e040010000000000060030000000000000000000000000000000000000000000e000000001000000061030000000000000000000000000000000000000000000e040010000000000060020000000000000000000000000000000000000000000e0400020000000000600100000000000000000000000000000000000000000004000008000100000001a00000000000000000000000000000000000000000000e0000000000000000e10400000000000000000000000000000000000000000007000000000000000000000000000000000000000000000000000000000000000c000001000100000001000000000000000000000000000000000000000000000c000001000100000000000000000000000000000000a079c3080000000000000e000000000200000021020000000000000000000000000000000000000000000e00000200000000006003000000000000000000000000000000000000000000070000000000000000032e0700000000000000000000000000000000000000000e0000000002000000610300000000000000000000000000000000000000000002000002000200000000040000000000000000000000000000000000000000000c000004000400000001200000000000000000000000000000000000000000000c000004000400000000000000000000000000000000000000000000000000000e000004000000000060020000000000000000000000000000000000000000000204000000010000000000000000000000000000000000000000000000000000070000000000000000032e0700000000000000000000000000000000000000000e0000000002000000610300000000000000000000000000000000000000000002000002000200000000240000000000000000000000000000000000000000000c000001000100000001180000000000000000000000000000000000000000000c00000100010000000000000000000000000000000000000000000000000000070000000000000000032e0700000000000000000000000000000000000000000e0000000002000000610300000000000000000000000000000000000000000002000002000200000000440000000000000000000000000000000000000000000c00000100010000000100000000000000004854474e454c5f450000000000000c000001000100000000525554414e4749535f44494c41564e49000000000000070000000000000000032e0700000000000000000000000000000000000000000c000002000200000001640000000000000000000000000000000000000000000c000002000200000000000000000000000000000000000000000000000000000e000002000000000000000000000000000000000000000000000000000000000c000002000200000001000000000000000000000000000000000000000000000c000002000200000000000000000000000000000000000000000000000000000c000004000400000001030000000000000000000000000000000000000000000c000004000400000000000000000000000000000000000000000000000000000e000004000000000060010000000000000000000000000000000000000000000e0000020000000000600500000000000000000000000000000000000000000018000002000400000000050000000000000000000000000000000000000000000e000004000000000060040000000000000000000000000000000000000000000e00000000020000006103000000000000000000000000000000000000000000020200040001000000000000000000000000000000000000000000000000000007000000000000000003060700000000000000000000000000000000000000000e000000000200000061020000000000000000000000000000000000000000000e0000000004000000610400000000000000000000000000000000000000000008040002000200000000000000000000000000000000000000000000000000000e020001000000000000010000000000000000000000000000000000000000000e0000000002000000610500000000000000000000000000000000000000000002000002000200000000010000000000000000000000000000000000000000000e0000000004000000610100000000000000000000000000000000000000000004020004000000000000000000000000000000000000000000000000000000000a0000000000000000028c029b020000000000000000000000000000000000000e00000000020000006103000000000000000000000000000000000000000000020000020001000000006000000000000000000000000000000000000000000007000000000000000003060700000000000000000000000000000000000000000c000002000200000001ffffffffffffffffffffffffffffffff0000000000000c000002000200000000ffffffffffffffffffffffff000000000000000000000e000000000400000001040000000000000000000000000000000000000000001a040002000200000002000000000000000000000000000000000000000000000c000004000400000001000000000000000000000000000000000000000000000c000004000400000000000000000000000000000000ffffffff0000000000001a010004000400000002000000000000000000000000000000000000000000001a040002000200000004000000000000000000000000000000000000000000000e000002000000000000040000000000000000000000000000000000000000000e0000000000000000e10400000000000000000000000000000000000000000007000000000000000004000000000000000000000000000000000000000000000e0000000000000000e0180000000000000000000000000000000000000000000e0000010000000000600d0000000000000000000000000000000000000000000c000004000400000001000000000000000000000000000000000000000000000c000004000400000000000000000000000000000000000000000000000000000e000004000000000060190000000000000000000000000000000000000000000e000004000000000060180000000000000000000000000000000000000000000e000004000000000060150000000000000000000000000000000000000000000e000004000000000060170000000000000000000000000000000000000000000c000000000400000001c00200000000000000000000000000000000000000000e00000400000000006013000000000000000000000000000000000000000000020400000001000000000000000000000000000000000000000000000000000007000000000000000003430200000000000000000000000000000000000000000a000000000000000002b602b7020000000000000000000000000000000000000a000000000000000001040704070000000000000000000000000000000000000c000008000800000001200000000000000000000000000000000000000000000c000008000800000000000000000000000000000000000000000000000000000e000000001000000021020000000000000000000000000000000000000000000c000004000400000001bfffffffffffffffffffffffffffffff0000000000000c000004000400000000ffffffffffffffffffffffffffffffff0000000000000e0000080000000000601600000000000000000000000000000000000000000004100004000000000000000000000000000000000000000000000000000000000a0000000000000000089405bf0200000000000000000000000000000000000002000010002000000000400000000000000000000000000000000000000000000c000002000200000001ffffffffffffffff00000000000000000000000000000c000002000200000000000000000000000000000000000000000000000000000e0000020000000000601000000000000000000000000000000000000000000004200002000000000000000000000000000000000000000000000000000000000a0000000000000000089405c5020000000000000000000000000000000000000e000004000000000060120000000000000000000000000000000000000000000e0000000004000000611300000000000000000000000000000000000000000002000004000200000000400000000000000000000000000000000000000000000200000400040000000020000000000000000000000000000000000000000000080400080004000000000000000000000000000000000000000000000000000008020008000200000000000000000000000000000000000000000000000000000e000000000800000061170000000000000000000000000000000000000000000e0000080000000000600a0000000000000000000000000000000000000000000e020000000200000061010000000000000000000000000000000000000000000e0000020000000000600c0000000000000000000000000000000000000000000e040000000200000061010000000000000000000000000000000000000000000e0000020000000000600b0000000000000000000000000000000000000000000e000020000000000020020000000000000000000000000000000000000000000c0000020002000000017fffffffffffffff00000000000000000000000000000c0000020002000000000000000000000000000000000000000000000000000004100002000000000000000000000000000000000000000000000000000000000a000000000000000008b305d60200000000000000000000000000000000000002000010000200000000800000000000000000000000000000000000000000000e000002000000000020020000000000000000000000000000000000000000000c000001000100000001030000000000000000000000000000000000000000000c0000010001000000000000000000000000000000000000000000000000000002200000000200000000000000000000000000000000000000000000000000000e000010000000000060140000000000000000000000000000000000000000000e00002000000000006013000000000000000000000000000000000000000000070000000000000000032e0700000000000000000000000000000000000000000e0000000002000000611400000000000000000000000000000000000000000002000002000200000000600000000000000000000000000000000000000000000c000001000100000001000000000000000000000000000000000000000000000c00000100010000000000000000000000000000000000524258000000000000070000000000000000032e0700000000000000000000000000000000000000000e000000000100000061130000000000000000000000000000000000000000000e00000000020000006114000000000000000000000000000000000000000000070000000000000000032e0700000000000000000000000000000000000000000e000000000200000021020000000000000000000000000000000000000000000e0000000004000000611200000000000000000000000000000000000000000004020004000000000000000000000000000000000000000000000000000000000a000000000000000008d205ea0200000000000000000000000000000000000002000002000800000000400000000000000000000000000000000000000000000e0000000004000000611000000000000000000000000000000000000000000004080004000000000000000000000000000000000000000000000000000000000a000000000000000008d205ee020000000000000000000000000000000000000e000008000000000020020000000000000000000000000000000000000000000c000004000400000001010000000000000000000000000000000000000000000c000004000400000000000000000000000000000000000000000000000000000e0000040000000000600300000000000000000000000000000000000000000002040000000100000000000000000000000000000000000000000000000000000e0000020000000000600f000000000000000000000000000000000000000000070000000000000000032e0700000000000000000000000000000000000000000e0000000002000000610f00000000000000000000000000000000000000000002000002000200000000200000000000000000000000000000000000000000000c000001000100000001000000000000000000000000000000000000000000000c000001000100000000000000000000000000000000000000310000000000000e00000200000000006013000000000000000000000000000000000000000000070000000000000000032e0700000000000000000000000000000000000000000e0000000002000000611400000000000000000000000000000000000000000002000002000200000000200000000000000000000000000000000000000000000e0000000004000000610f0000000000000000000000000000000000000000000204000000010000000000000000000000000000000000000000000000000000070000000000000000032e0700000000000000000000000000000000000000000e0000000001000000611400000000000000000000000000000000000000000007000000000000000003060700000000000000000000000000000000000000000e0000010000000000601400000000000000000000000000000000000000000007000000000000000003060700000000000000000000000000000000000000000e00000000020000006114000000000000000000000000000000000000000000020000020004000000002000000000000000000000000000000000000000000002010000000800000000000000000000000000000000000000000000000000001a0000080002000000021f0000000000000000000000000000000000000000000e0000020000000000600e00000000000000000000000000000000000000000010000000000000000000000000000000000000000000000000000000000000000e000008000000000040000000000000000000000000000000000000000000000e0000080000000000600900000000000000000000000000000000000000000018000008000800000002050000000000000000000000000000000000000000000e000000000200000061160000000000000000000000000000000000000000000e000000000200000061150000000000000000000000000000000000000000000e000008000000000060110000000000000000000000000000000000000000000e0000040000000000601200000000000000000000000000000000000000000004080000000000000000000000000000000000000000000000000000000000000a000000000000000004220313030000000000000000000000000000000000000e0000020000000000601500000000000000000000000000000000000000000018000002000200000000050000000000000000000000000000000000000000000e00000200000000006014000000000000000000000000000000000000000000020400020001000000000000000000000000000000000000000000000000000007000000000000000003060700000000000000000000000000000000000000000e000000000400000061120000000000000000000000000000000000000000000e000000000200000061160000000000000000000000000000000000000000000e0000000008000000611400000000000000000000000000000000000000000008080002000200000000000000000000000000000000000000000000000000000e020001000000000040010000000000000000000000000000000000000000000e0000000002000000611500000000000000000000000000000000000000000002000002000200000000010000000000000000000000000000000000000000000e0000000008000000611100000000000000000000000000000000000000000004020008000000000000000000000000000000000000000000000000000000000a000000000000000002130322030000000000000000000000000000000000000c000010001000000001e0ffffffffffffffffffffffffffffff0000000000000c000010001000000000ffffffffffffffffffffffffffffffff0000000000000e0000000002000000610e0000000000000000000000000000000000000000000e0000100000000000601100000000000000000000000000000000000000000004020000000000000000000000000000000000000000000000000000000000000a0000000000000000043f0328030000000000000000000000000000000000000e000000000800000061090000000000000000000000000000000000000000001a080010000800000002000000000000000000000000000000000000000000000e00000800000000006015000000000000000000000000000000000000000000020400080001000000000000000000000000000000000000000000000000000007000000000000000003060700000000000000000000000000000000000000000e000000000200000061160000000000000000000000000000000000000000000e0000000004000000611500000000000000000000000000000000000000000008040002000200000000000000000000000000000000000000000000000000000e0000000004000000610e00000000000000000000000000000000000000000018000004000400000000030000000000000000000000000000000000000000000c000008000800000001ffffffffffffffffffffffffffffffff0000000000000c000008000800000000ffffffffffffffffffffffffffffffff00000000000018040008001000000002000000000000000000000000000000000000000000000e020000002000000041010000000000000000000000000000000000000000001a200010001000000002000000000000000000000000000000000000000000000c000020002000000001000100000000000000000000000000000000000000000c00002000200000000000000000000000000000000000000000000000000000042000040004000000000000000000000000000000000000000000000000000018040008000400000000000000000000000000000000000000000000000000001a010004000400000002000000000000000000000000000000000000000000001a040010000400000004000000000000000000000000000000000000000000000e000000001000000061110000000000000000000000000000000000000000000e020004000000000040010000000000000000000000000000000000000000000c00000100010000000100000000ff03000000000000000000000000000000000c00000100010000000000000000000000000000000000000000000000000000070000000000000000034d0700000000000000000000000000000000000000000e000000000200000041010000000000000000000000000000000000000000000e0000020000000000600e0000000000000000000000000000000000000000000e0000000001000000610f00000000000000000000000000000000000000000007000000000000000003060700000000000000000000000000000000000000000c000008000800000001000000000000000000000000000000000000000000000c0000080008000000000000000000000000000000000000000000000000000002010000000400000000000000000000000000000000000000000000000000001a0000040002000000021f0000000000000000000000000000000000000000000e0000020000000000600f00000000000000000000000000000000000000000010000000000000000000000000000000000000000000000000000000000000000e000004000000000040000000000000000000000000000000000000000000000e0000040000000000600900000000000000000000000000000000000000000018000004000200000002050000000000000000000000000000000000000000000e000000000400000061160000000000000000000000000000000000000000000e000000000400000061130000000000000000000000000000000000000000000e0000020000000000601200000000000000000000000000000000000000000004020000000000000000000000000000000000000000000000000000000000000a000000000000000004630354030000000000000000000000000000000000000e0000080000000000601500000000000000000000000000000000000000000018000008000400000000050000000000000000000000000000000000000000000e000004000000000060140000000000000000000000000000000000000000000e00000000020000006113000000000000000000000000000000000000000000020200040001000000000000000000000000000000000000000000000000000007000000000000000003060700000000000000000000000000000000000000000e000000000800000061150000000000000000000000000000000000000000000e000000000200000061160000000000000000000000000000000000000000000e0000000004000000611400000000000000000000000000000000000000000008040002000200000000000000000000000000000000000000000000000000000e0200010000000000400100000000000000000000000000000000000000000002000008000800000000010000000000000000000000000000000000000000000e0000000002000000611200000000000000000000000000000000000000000004080002000000000000000000000000000000000000000000000000000000000a000000000000000002540363030000000000000000000000000000000000000e000000000400000061130000000000000000000000000000000000000000000e0000000002000000610f00000000000000000000000000000000000000000004020000000000000000000000000000000000000000000000000000000000000a0000000000000000047e0367030000000000000000000000000000000000000e000000000200000061110000000000000000000000000000000000000000000e000000000800000061090000000000000000000000000000000000000000001a080002000200000002000000000000000000000000000000000000000000000e00000200000000006015000000000000000000000000000000000000000000020400020001000000000000000000000000000000000000000000000000000007000000000000000003060700000000000000000000000000000000000000000e000000000200000061160000000000000000000000000000000000000000000e0000000004000000611500000000000000000000000000000000000000000008040002000200000000000000000000000000000000000000000000000000000e0000000004000000610f00000000000000000000000000000000000000000018000004000400000000030000000000000000000000000000000000000000000c000008000800000001ffffffffffffffffffffffffffffffff0000000000000c000008000800000000ffffffffffffffffffffffffffffffff00000000000018040008001000000002000000000000000000000000000000000000000000000e020000002000000041010000000000000000000000000000000000000000001a200010001000000002000000000000000000000000000000000000000000000c000020002000000001000100000000000000000000000000000000000000000c00002000200000000000000000000000000000000000000000000000000000042000040004000000000000000000000000000000000000000000000000000018040008000400000000000000000000000000000000000000000000000000001a010004000400000002000000000000000000000000000000000000000000001a040010000400000004000000000000000000000000000000000000000000000e020004000000000040010000000000000000000000000000000000000000000c00000100010000000100000000ff03000000000000000000000000000000000c00000100010000000000000000000000000000000000000000000000000000070000000000000000034d0700000000000000000000000000000000000000000e000000000200000021020000000000000000000000000000000000000000000e0000020000000000601500000000000000000000000000000000000000000002000002000200000000200000000000000000000000000000000000000000000e000000000400000041010000000000000000000000000000000000000000000e000004000000000060140000000000000000000000000000000000000000000c000001000100000001c3158ecbf3f9d3e86df3124aeb0394d40000000000000c000001000100000000b9696f16ebd596219beb3463444839b00000000000000e00000200000000006013000000000000000000000000000000000000000000070000000000000000032e0700000000000000000000000000000000000000000e0000000002000000611500000000000000000000000000000000000000000002000002000200000000400000000000000000000000000000000000000000000e0000000001000000610e000000000000000000000000000000000000000000070000000000000000032e0700000000000000000000000000000000000000000e0000000002000000611500000000000000000000000000000000000000000002000002000200000000600000000000000000000000000000000000000000000e00000000010000006114000000000000000000000000000000000000000000070000000000000000032e0700000000000000000000000000000000000000000c000001000100000001600000000000000000000000000000000000000000000c000001000100000000000000000000000000000000000000000000000000000e00000000020000006115000000000000000000000000000000000000000000070000000000000000032e0700000000000000000000000000000000000000000e000000000800000061150000000000000000000000000000000000000000000c0000020002000000017fffffffffffffffffffffffffffffff0000000000000c000002000200000000ffffffffffffffffffffffffffffffff0000000000000e0000020000000000600900000000000000000000000000000000000000000004080002000000000000000000000000000000000000000000000000000000000a000000000000000008f3059c0300000000000000000000000000000000000002000008000200000000800000000000000000000000000000000000000000000e0000000004000000611000000000000000000000000000000000000000000004020004000000000000000000000000000000000000000000000000000000000a000000000000000008f305a0030000000000000000000000000000000000000e00000200000000002002000000000000000000000000000000000000000000020800000001000000000000000000000000000000000000000000000000000007000000000000000003060700000000000000000000000000000000000000000c000008000800000001000000000000000000000000000000000000000000000c0000080008000000000000000000000000000000000000000000000000000002010000000400000000000000000000000000000000000000000000000000001a0000040002000000021f0000000000000000000000000000000000000000000e0000020000000000600f00000000000000000000000000000000000000000010000000000000000000000000000000000000000000000000000000000000000e000004000000000040000000000000000000000000000000000000000000000e0000040000000000600e00000000000000000000000000000000000000000018000004000200000002050000000000000000000000000000000000000000000e000000000400000061160000000000000000000000000000000000000000000e000000000400000061130000000000000000000000000000000000000000000e0000020000000000601200000000000000000000000000000000000000000004020000000000000000000000000000000000000000000000000000000000000a000000000000000004c003b1030000000000000000000000000000000000000e0000080000000000601500000000000000000000000000000000000000000018000008000400000000050000000000000000000000000000000000000000000e000004000000000060140000000000000000000000000000000000000000000e00000000020000006113000000000000000000000000000000000000000000020200040001000000000000000000000000000000000000000000000000000007000000000000000003060700000000000000000000000000000000000000000e000000000800000061150000000000000000000000000000000000000000000e000000000200000061160000000000000000000000000000000000000000000e0000000004000000611400000000000000000000000000000000000000000008040002000200000000000000000000000000000000000000000000000000000e0200010000000000400100000000000000000000000000000000000000000002000008000800000000010000000000000000000000000000000000000000000e0000000002000000611200000000000000000000000000000000000000000004080002000000000000000000000000000000000000000000000000000000000a000000000000000002b103c0030000000000000000000000000000000000000e000000000400000061130000000000000000000000000000000000000000000e0000000002000000610f00000000000000000000000000000000000000000004020000000000000000000000000000000000000000000000000000000000000a000000000000000004db03c4030000000000000000000000000000000000000e000000000200000061110000000000000000000000000000000000000000000e0000000008000000610e0000000000000000000000000000000000000000001a080002000200000002000000000000000000000000000000000000000000000e00000200000000006015000000000000000000000000000000000000000000020400020001000000000000000000000000000000000000000000000000000007000000000000000003060700000000000000000000000000000000000000000e000000000200000061160000000000000000000000000000000000000000000e0000000004000000611500000000000000000000000000000000000000000008040002000200000000000000000000000000000000000000000000000000000e0000000004000000610f00000000000000000000000000000000000000000018000004000400000000030000000000000000000000000000000000000000000c000008000800000001ffffffffffffffffffffffffffffffff0000000000000c000008000800000000ffffffffffffffffffffffffffffffff00000000000018040008001000000002000000000000000000000000000000000000000000000e020000002000000041010000000000000000000000000000000000000000001a200010001000000002000000000000000000000000000000000000000000000c000020002000000001000100000000000000000000000000000000000000000c00002000200000000000000000000000000000000000000000000000000000042000040004000000000000000000000000000000000000000000000000000018040008000400000000000000000000000000000000000000000000000000001a010004000400000002000000000000000000000000000000000000000000001a040010000400000004000000000000000000000000000000000000000000000e020004000000000040010000000000000000000000000000000000000000000c00000100010000000100000000ff03000000000000000000000000000000000c00000100010000000000000000000000000000000000000000000000000000070000000000000000034d0700000000000000000000000000000000000000000e000000000200000021060000000000000000000000000000000000000000000e000002000000000060060000000000000000000000000000000000000000000e000000000200000021050000000000000000000000000000000000000000000e000002000000000060050000000000000000000000000000000000000000000c000002000200000001000000000000000000000000000000000000000000000c000002000200000000000000000000000000000000000000000000000000000e000002000000000060150000000000000000000000000000000000000000000e000000000200000021070000000000000000000000000000000000000000000e000002000000000060080000000000000000000000000000000000000000000e000000000200000021040000000000000000000000000000000000000000000e000002000000000060070000000000000000000000000000000000000000000e000000000200000041010000000000000000000000000000000000000000000e000002000000000060020000000000000000000000000000000000000000000e000000000200000021080000000000000000000000000000000000000000000e00000200000000006014000000000000000000000000000000000000000000020200000001000000000000000000000000000000000000000000000000000007000000000000000003060700000000000000000000000000000000000000000e00000000020000006114000000000000000000000000000000000000000000020000020004000000002000000000000000000000000000000000000000000002010000000800000000000000000000000000000000000000000000000000001a0000080002000000021f0000000000000000000000000000000000000000000e0000020000000000600f00000000000000000000000000000000000000000010000000000000000000000000000000000000000000000000000000000000000e000008000000000040000000000000000000000000000000000000000000000e0000080000000000600e00000000000000000000000000000000000000000018000008000200000002050000000000000000000000000000000000000000000e000000000800000061160000000000000000000000000000000000000000000e000002000000000060120000000000000000000000000000000000000000000e0000040000000000601300000000000000000000000000000000000000000004020000000000000000000000000000000000000000000000000000000000000a0000000000000000040e04fd030000000000000000000000000000000000000e000000000200000061150000000000000000000000000000000000000000000e0000020000000000601500000000000000000000000000000000000000000018000002000200000000050000000000000000000000000000000000000000000e00000200000000006014000000000000000000000000000000000000000000020400020001000000000000000000000000000000000000000000000000000007000000000000000003060700000000000000000000000000000000000000000e000000000400000061130000000000000000000000000000000000000000000e000000000200000061160000000000000000000000000000000000000000000e0000000008000000611400000000000000000000000000000000000000000008080002000200000000000000000000000000000000000000000000000000000e020001000000000040010000000000000000000000000000000000000000000e0000000008000000611500000000000000000000000000000000000000000002000008000800000000010000000000000000000000000000000000000000000e000008000000000060150000000000000000000000000000000000000000000e0000000002000000611200000000000000000000000000000000000000000004080002000000000000000000000000000000000000000000000000000000000a000000000000000002fd030e040000000000000000000000000000000000000e0000000002000000610f00000000000000000000000000000000000000000004020000000000000000000000000000000000000000000000000000000000000a000000000000000004280411040000000000000000000000000000000000000e000000000200000061110000000000000000000000000000000000000000000e0000000008000000610e0000000000000000000000000000000000000000001a080002000200000002000000000000000000000000000000000000000000000e00000200000000006015000000000000000000000000000000000000000000020400020001000000000000000000000000000000000000000000000000000007000000000000000003060700000000000000000000000000000000000000000e000000000200000061160000000000000000000000000000000000000000000e0000000004000000611500000000000000000000000000000000000000000008040002000200000000000000000000000000000000000000000000000000000e0000000004000000610f00000000000000000000000000000000000000000018000004000400000000030000000000000000000000000000000000000000000c000008000800000001ffffffffffffffffffffffffffffffff0000000000000c000008000800000000ffffffffffffffffffffffffffffffff00000000000018040008001000000002000000000000000000000000000000000000000000000e020000002000000041010000000000000000000000000000000000000000001a200010001000000002000000000000000000000000000000000000000000000c000020002000000001000100000000000000000000000000000000000000000c00002000200000000000000000000000000000000000000000000000000000042000040004000000000000000000000000000000000000000000000000000018040008000400000000000000000000000000000000000000000000000000001a010004000400000002000000000000000000000000000000000000000000001a040010000400000004000000000000000000000000000000000000000000000e020004000000000040010000000000000000000000000000000000000000000c000002000200000001ffffffffffffffffffffffffffffffff0000000000000c000002000200000000ffffffff0000000000000000000000000000000000000e0000020000000000600f0000000000000000000000000000000000000000000c00000100010000000100000000ff03000000000000000000000000000000000c00000100010000000000000000000000000000000000000000000000000000070000000000000000034d0700000000000000000000000000000000000000000c000002000200000001000000000000000000000000000000000000000000000c000002000200000000000000000000000000000000000000000000000000000e000002000000000060150000000000000000000000000000000000000000000e000000000200000041010000000000000000000000000000000000000000000e000002000000000060040000000000000000000000000000000000000000000e000000000200000021090000000000000000000000000000000000000000000e00000200000000006014000000000000000000000000000000000000000000020200000001000000000000000000000000000000000000000000000000000007000000000000000003060700000000000000000000000000000000000000000e00000000020000006114000000000000000000000000000000000000000000020000020008000000002000000000000000000000000000000000000000000002010000000400000000000000000000000000000000000000000000000000001a0000040002000000021f0000000000000000000000000000000000000000000e0000020000000000600e00000000000000000000000000000000000000000010000000000000000000000000000000000000000000000000000000000000000e000004000000000040000000000000000000000000000000000000000000000e0000040000000000600100000000000000000000000000000000000000000018000004000200000002050000000000000000000000000000000000000000000e000000000400000061160000000000000000000000000000000000000000000e000002000000000060120000000000000000000000000000000000000000000e0000080000000000601300000000000000000000000000000000000000000004020000000000000000000000000000000000000000000000000000000000000a000000000000000004560445040000000000000000000000000000000000000e000000000200000061150000000000000000000000000000000000000000000e0000020000000000601500000000000000000000000000000000000000000018000002000200000000050000000000000000000000000000000000000000000e00000200000000006014000000000000000000000000000000000000000000020800020001000000000000000000000000000000000000000000000000000007000000000000000003060700000000000000000000000000000000000000000e000000000800000061130000000000000000000000000000000000000000000e000000000200000061160000000000000000000000000000000000000000000e0000000004000000611400000000000000000000000000000000000000000008040002000200000000000000000000000000000000000000000000000000000e020001000000000040010000000000000000000000000000000000000000000e0000000004000000611500000000000000000000000000000000000000000002000004000400000000010000000000000000000000000000000000000000000e000004000000000060150000000000000000000000000000000000000000000e0000000002000000611200000000000000000000000000000000000000000004040002000000000000000000000000000000000000000000000000000000000a000000000000000002450456040000000000000000000000000000000000000e0000000002000000610f0000000000000000000000000000000000000000000e000000000400000061060000000000000000000000000000000000000000001a040002000400000002000000000000000000000000000000000000000000000e000004000000000060140000000000000000000000000000000000000000000e000000000400000061050000000000000000000000000000000000000000001a040002000200000002000000000000000000000000000000000000000000000e000002000000000060120000000000000000000000000000000000000000000e0000000002000000610e00000000000000000000000000000000000000000004020000000000000000000000000000000000000000000000000000000000000a000000000000000004770460040000000000000000000000000000000000000e000000000200000061110000000000000000000000000000000000000000000e000000000400000061010000000000000000000000000000000000000000001a040002000200000002000000000000000000000000000000000000000000000e00000200000000006015000000000000000000000000000000000000000000020800020001000000000000000000000000000000000000000000000000000007000000000000000003060700000000000000000000000000000000000000000e000000000200000061160000000000000000000000000000000000000000000e0000000004000000611500000000000000000000000000000000000000000008040002000200000000000000000000000000000000000000000000000000000e0000000004000000610e00000000000000000000000000000000000000000018000004000400000000030000000000000000000000000000000000000000000c000008000800000001ffffffffffffffffffffffffffffffff0000000000000c000008000800000000ffffffffffffffffffffffffffffffff00000000000018040008001000000002000000000000000000000000000000000000000000000e020000002000000041010000000000000000000000000000000000000000001a200010001000000002000000000000000000000000000000000000000000000c000020002000000001000100000000000000000000000000000000000000000c00002000200000000000000000000000000000000000000000000000000000042000040004000000000000000000000000000000000000000000000000000018040008000400000000000000000000000000000000000000000000000000001a010004000400000002000000000000000000000000000000000000000000001a040010000400000004000000000000000000000000000000000000000000000e020004000000000040010000000000000000000000000000000000000000000c00000100010000000100000000ff03000000000000000000000000000000000c00000100010000000000000000000000000000000000000000000000000000070000000000000000034d0700000000000000000000000000000000000000000e000000000200000021020000000000000000000000000000000000000000000e0000020000000000601500000000000000000000000000000000000000000002000002000200000000200000000000000000000000000000000000000000000e000000000400000041010000000000000000000000000000000000000000000e0000040000000000600e0000000000000000000000000000000000000000000c000001000100000001a59875f22d99e53d0443804ccab55da50000000000000c0000010001000000009e34287fe9d93c52b3ea6dab2dea8b780000000000000e00000200000000006013000000000000000000000000000000000000000000070000000000000000032e0700000000000000000000000000000000000000000e0000000002000000611500000000000000000000000000000000000000000002000002000200000000400000000000000000000000000000000000000000000e00000000010000006107000000000000000000000000000000000000000000070000000000000000032e0700000000000000000000000000000000000000000e0000000002000000611500000000000000000000000000000000000000000002000002000200000000600000000000000000000000000000000000000000000e00000000010000006112000000000000000000000000000000000000000000070000000000000000032e0700000000000000000000000000000000000000000e0000000002000000611500000000000000000000000000000000000000000002000002000200000000800000000000000000000000000000000000000000000e00000000010000006114000000000000000000000000000000000000000000070000000000000000032e0700000000000000000000000000000000000000000e0000000002000000611500000000000000000000000000000000000000000002000002000200000000a00000000000000000000000000000000000000000000e00000000010000006108000000000000000000000000000000000000000000070000000000000000032e0700000000000000000000000000000000000000000e0000000002000000611500000000000000000000000000000000000000000002000002000200000000c00000000000000000000000000000000000000000000e00000000010000006104000000000000000000000000000000000000000000070000000000000000032e0700000000000000000000000000000000000000000e0000000002000000611500000000000000000000000000000000000000000002000002000200000000e00000000000000000000000000000000000000000000e0000000001000000610e000000000000000000000000000000000000000000070000000000000000032e0700000000000000000000000000000000000000000c000001000100000001e00000000000000000000000000000000000000000000c000001000100000000000000000000000000000000000000000000000000000e00000000020000006115000000000000000000000000000000000000000000070000000000000000032e0700000000000000000000000000000000000000000e000000000800000061150000000000000000000000000000000000000000000c000002000200000001fffeffffffffffffffffffffffffffff0000000000000c000002000200000000ffffffffffffffffffffffffffffffff00000000000004080002000000000000000000000000000000000000000000000000000000000a0000000000000000081206a40400000000000000000000000000000000000002000008000200000000000100000000000000000000000000000000000000000e0000000004000000611000000000000000000000000000000000000000000004020004000000000000000000000000000000000000000000000000000000000a0000000000000000081206a8040000000000000000000000000000000000000e00000200000000002002000000000000000000000000000000000000000000020800000001000000000000000000000000000000000000000000000000000007000000000000000003060700000000000000000000000000000000000000000c000008000800000001000000000000000000000000000000000000000000000c0000080008000000000000000000000000000000000000000000000000000002010000000400000000000000000000000000000000000000000000000000001a0000040002000000021f0000000000000000000000000000000000000000000e0000020000000000600e00000000000000000000000000000000000000000010000000000000000000000000000000000000000000000000000000000000000e000004000000000040000000000000000000000000000000000000000000000e0000040000000000600800000000000000000000000000000000000000000018000004000200000002050000000000000000000000000000000000000000000e000000000400000061160000000000000000000000000000000000000000000e000000000400000061130000000000000000000000000000000000000000000e0000020000000000601200000000000000000000000000000000000000000004020000000000000000000000000000000000000000000000000000000000000a000000000000000004c804b9040000000000000000000000000000000000000e0000080000000000601500000000000000000000000000000000000000000018000008000400000000050000000000000000000000000000000000000000000e000004000000000060140000000000000000000000000000000000000000000e00000000020000006113000000000000000000000000000000000000000000020200040001000000000000000000000000000000000000000000000000000007000000000000000003060700000000000000000000000000000000000000000e000000000800000061150000000000000000000000000000000000000000000e000000000200000061160000000000000000000000000000000000000000000e0000000004000000611400000000000000000000000000000000000000000008040002000200000000000000000000000000000000000000000000000000000e0200010000000000400100000000000000000000000000000000000000000002000008000800000000010000000000000000000000000000000000000000000e0000000002000000611200000000000000000000000000000000000000000004080002000000000000000000000000000000000000000000000000000000000a000000000000000002b904c8040000000000000000000000000000000000000e000000000400000061130000000000000000000000000000000000000000000e0000000002000000610e00000000000000000000000000000000000000000004020000000000000000000000000000000000000000000000000000000000000a000000000000000004e304cc040000000000000000000000000000000000000e000000000200000061110000000000000000000000000000000000000000000e000000000800000061080000000000000000000000000000000000000000001a080002000200000002000000000000000000000000000000000000000000000e00000200000000006015000000000000000000000000000000000000000000020400020001000000000000000000000000000000000000000000000000000007000000000000000003060700000000000000000000000000000000000000000e000000000200000061160000000000000000000000000000000000000000000e0000000004000000611500000000000000000000000000000000000000000008040002000200000000000000000000000000000000000000000000000000000e0000000004000000610e00000000000000000000000000000000000000000018000004000400000000030000000000000000000000000000000000000000000c000008000800000001ffffffffffffffffffffffffffffffff0000000000000c000008000800000000ffffffffffffffffffffffffffffffff00000000000018040008001000000002000000000000000000000000000000000000000000000e020000002000000041010000000000000000000000000000000000000000001a200010001000000002000000000000000000000000000000000000000000000c000020002000000001000100000000000000000000000000000000000000000c00002000200000000000000000000000000000000000000000000000000000042000040004000000000000000000000000000000000000000000000000000018040008000400000000000000000000000000000000000000000000000000001a010004000400000002000000000000000000000000000000000000000000001a040010000400000004000000000000000000000000000000000000000000000e020004000000000040010000000000000000000000000000000000000000000c00000100010000000100000000ff03000000000000000000000000000000000c00000100010000000000000000000000000000000000000000000000000000070000000000000000034d0700000000000000000000000000000000000000000e000000000200000021020000000000000000000000000000000000000000000e0000020000000000601500000000000000000000000000000000000000000002000002000200000000200000000000000000000000000000000000000000000e000000000400000041010000000000000000000000000000000000000000000e000004000000000060140000000000000000000000000000000000000000000c000001000100000001000000000000000000000000000000000000000000000c000001000100000000000000000000000000000000000001190000000000000e00000200000000006013000000000000000000000000000000000000000000070000000000000000032e0700000000000000000000000000000000000000000e0000000002000000611500000000000000000000000000000000000000000002000002000200000000220000000000000000000000000000000000000000000e00000000010000006102000000000000000000000000000000000000000000070000000000000000032e0700000000000000000000000000000000000000000e0000000002000000611500000000000000000000000000000000000000000002000002000200000000420000000000000000000000000000000000000000000e00000000010000006114000000000000000000000000000000000000000000070000000000000000032e0700000000000000000000000000000000000000000c000001000100000001420000000000000000000000000000000000000000000c000001000100000000000000000000000000000000000000000000000000000e00000000020000006115000000000000000000000000000000000000000000070000000000000000032e0700000000000000000000000000000000000000000e000000000800000061150000000000000000000000000000000000000000000e0000000002000000610900000000000000000000000000000000000000000004080002000000000000000000000000000000000000000000000000000000000a0000000000000000083106ff0400000000000000000000000000000000000002000008000200000000800000000000000000000000000000000000000000000e0000000004000000611000000000000000000000000000000000000000000004020004000000000000000000000000000000000000000000000000000000000a000000000000000008310603050000000000000000000000000000000000000e00000200000000002002000000000000000000000000000000000000000000020800000001000000000000000000000000000000000000000000000000000007000000000000000003060700000000000000000000000000000000000000000c000008000800000001000000000000000000000000000000000000000000000c0000080008000000000000000000000000000000000000000000000000000002010000000400000000000000000000000000000000000000000000000000001a0000040002000000021f0000000000000000000000000000000000000000000e0000020000000000601000000000000000000000000000000000000000000010000000000000000000000000000000000000000000000000000000000000000e000004000000000040000000000000000000000000000000000000000000000e0000040000000000600e00000000000000000000000000000000000000000018000004000200000002050000000000000000000000000000000000000000000e000000000400000061160000000000000000000000000000000000000000000e000000000400000061130000000000000000000000000000000000000000000e0000020000000000601200000000000000000000000000000000000000000004020000000000000000000000000000000000000000000000000000000000000a000000000000000004230514050000000000000000000000000000000000000e0000080000000000601500000000000000000000000000000000000000000018000008000400000000050000000000000000000000000000000000000000000e000004000000000060140000000000000000000000000000000000000000000e00000000020000006113000000000000000000000000000000000000000000020200040001000000000000000000000000000000000000000000000000000007000000000000000003060700000000000000000000000000000000000000000e000000000800000061150000000000000000000000000000000000000000000e000000000200000061160000000000000000000000000000000000000000000e0000000004000000611400000000000000000000000000000000000000000008040002000200000000000000000000000000000000000000000000000000000e0200010000000000400100000000000000000000000000000000000000000002000008000800000000010000000000000000000000000000000000000000000e0000000002000000611200000000000000000000000000000000000000000004080002000000000000000000000000000000000000000000000000000000000a000000000000000002140523050000000000000000000000000000000000000e0000000002000000610a0000000000000000000000000000000000000000001a000002000200000002ff0000000000000000000000000000000000000000000e000002000000000060150000000000000000000000000000000000000000000e000000000400000061130000000000000000000000000000000000000000000e0000000002000000611000000000000000000000000000000000000000000004020000000000000000000000000000000000000000000000000000000000000a00000000000000000441052a050000000000000000000000000000000000000e000000000200000061110000000000000000000000000000000000000000000e0000000008000000610e0000000000000000000000000000000000000000001a080002000200000002000000000000000000000000000000000000000000000e00000200000000006014000000000000000000000000000000000000000000020400020001000000000000000000000000000000000000000000000000000007000000000000000003060700000000000000000000000000000000000000000e000000000200000061160000000000000000000000000000000000000000000e0000000004000000611400000000000000000000000000000000000000000008040002000200000000000000000000000000000000000000000000000000000e0000000004000000611000000000000000000000000000000000000000000018000004000400000000030000000000000000000000000000000000000000000c000008000800000001ffffffffffffffffffffffffffffffff0000000000000c000008000800000000ffffffffffffffffffffffffffffffff00000000000018040008001000000002000000000000000000000000000000000000000000000e020000002000000041010000000000000000000000000000000000000000001a200010001000000002000000000000000000000000000000000000000000000c000020002000000001000100000000000000000000000000000000000000000c00002000200000000000000000000000000000000000000000000000000000042000040004000000000000000000000000000000000000000000000000000018040008000400000000000000000000000000000000000000000000000000001a010004000400000002000000000000000000000000000000000000000000001a040010000400000004000000000000000000000000000000000000000000000e020004000000000040010000000000000000000000000000000000000000000c00000100010000000100000000ff03000000000000000000000000000000000c00000100010000000000000000000000000000000000000000000000000000070000000000000000034d0700000000000000000000000000000000000000000e000000000100000041010000000000000000000000000000000000000000000e000000000200000021020000000000000000000000000000000000000000000e00000200000000006013000000000000000000000000000000000000000000070000000000000000032e0700000000000000000000000000000000000000000e0000000002000000611300000000000000000000000000000000000000000002000002000200000000200000000000000000000000000000000000000000000e00000000010000006115000000000000000000000000000000000000000000070000000000000000032e0700000000000000000000000000000000000000000e0000000002000000611300000000000000000000000000000000000000000002000002000200000000400000000000000000000000000000000000000000000e0000000001000000610b000000000000000000000000000000000000000000070000000000000000032e0700000000000000000000000000000000000000000e0000000002000000611300000000000000000000000000000000000000000002000002000200000000600000000000000000000000000000000000000000000e0000000001000000610c000000000000000000000000000000000000000000070000000000000000032e0700000000000000000000000000000000000000000c000004000400000001000000000000000000000000000000000000000000000c000004000400000000000000000000000000000000000000000000000000000e0000040000000000200000000000000000000000000000000000000000000010000000000000000000000000000000000000000000000000000000000000000c000002000200000001800000000000000000000000000000000000000000000c000002000200000000000000000000000000000000000000000000000000000e000002000000000040000000000000000000000000000000000000000000000c000002000200000001040000000000000000000000000000000000000000000c000002000200000000000000000000000000000000000000000000000000000e000002000000000060120000000000000000000000000000000000000000000e000000000200000061160000000000000000000000000000000000000000000e0000040000000000601500000000000000000000000000000000000000000018000004000400000000050000000000000000000000000000000000000000000e000004000000000060140000000000000000000000000000000000000000000e00000000020000006113000000000000000000000000000000000000000000020200040001000000000000000000000000000000000000000000000000000007000000000000000003060700000000000000000000000000000000000000000e000000000400000061150000000000000000000000000000000000000000000e000000000200000061160000000000000000000000000000000000000000000e0000000008000000611400000000000000000000000000000000000000000008080002000200000000000000000000000000000000000000000000000000000e0200010000000000400100000000000000000000000000000000000000000002000004000400000000010000000000000000000000000000000000000000000e0000000002000000611200000000000000000000000000000000000000000004040002000000000000000000000000000000000000000000000000000000000a0000000000000000025f056e050000000000000000000000000000000000000c000001000100000001000000000100000000000000000000000000000000000c00000100010000000000000000000000000000000000000000000000000000070000000000000000034d0700000000000000000000000000000000000000000c000002000200000001000000000000000000000000000000000000000000000c0000020002000000000000000000000000000000000000000000000000000002020000000400000000000000000000000000000000000000000000000000000e000000002000000061160000000000000000000000000000000000000000000e000000004000000061030000000000000000000000000000000000000000000a0000000000000000017a057a05000000000000000000000000000000000000020800000004000000000000000000000000000000000000000000000000000004100000000000000000000000000000000000000000000000000000000000000a00000000000000000a7a058405000000000000000000000000000000000000180000040008000000000500000000000000000000000000000000000000000008080020000800000000000000000000000000000000000000000000000000000e080000001000000041010000000000000000000000000000000000000000000e080010000000000020000000000000000000000000000000000000000000000200000400080000000001000000000000000000000000000000000000000000024000000010000000000000000000000000000000000000000000000000000004080004000000000000000000000000000000000000000000000000000000000a0000000000000000027705820500000000000000000000000000000000000002020000001000000000000000000000000000000000000000000000000000000a0000000000000000017705770500000000000000000000000000000000000004010000000000000000000000000000000000000000000000000000000000000a000000000000000004920686050000000000000000000000000000000000000e000000000200000021000000000000000000000000000000000000000000000e0000000004000000610d0000000000000000000000000000000000000000001a020004000200000008000000000000000000000000000000000000000000000e0000000004000000610f0000000000000000000000000000000000000000001a020004000400000002000000000000000000000000000000000000000000000c000002000200000001010000000000000000000000000000000000000000000c0000020002000000000000000000000000000000000000000000000000000004040000000000000000000000000000000000000000000000000000000000000a00000000000000000491058f050000000000000000000000000000000000000c000002000200000001000000000000000000000000000000000000000000000c000002000200000000000000000000000000000000000000000000000000001a000002000100000002010000000000000000000000000000000000000000000e0000000000000000e11800000000000000000000000000000000000000000007000000000000000000000000000000000000000000000000000000000000000c000002000200000001000000000000000000000000000000000000000000000c000002000200000000000000000000000000000000717b484e0000000000000e000002000000000020000000000000000000000000000000000000000000000c000001000100000001410000000000000000000000000000000000000000000c000001000100000000000000000000000000000000000000000000000000000c000002000200000001040000000000000000000000000000000000000000000c00000200020000000000000000000000000000000000000000000000000000070000000000000000032e0700000000000000000000000000000000000000000e000000004000000061160000000000000000000000000000000000000000000c000002000200000001240000000000000000000000000000000000000000000c000002000200000000000000000000000000000000000000000000000000000e000002000000000000000000000000000000000000000000000000000000000c000002000200000001000000000000000000000000000000000000000000000c000002000200000000000000000000000000000000000000000000000000000c000004000400000001010000000000000000000000000000000000000000000c0000040004000000000000000000000000000000000000000000000000000002020000000800000000000000000000000000000000000000000000000000000a000000000000000001a905a905000000000000000000000000000000000000021000000008000000000000000000000000000000000000000000000000000004200000000000000000000000000000000000000000000000000000000000000a00000000000000000aa9055006000000000000000000000000000000000000180000080010000000000500000000000000000000000000000000000000000008100040001000000000000000000000000000000000000000000000000000000e100000002000000021000000000000000000000000000000000000000000000e100020000000000000010000000000000000000000000000000000000000000200000800100000000001000000000000000000000000000000000000000000020400000020000000000000000000000000000000000000000000000000000004100008000000000000000000000000000000000000000000000000000000000a000000000000000002a605b10500000000000000000000000000000000000002020000002000000000000000000000000000000000000000000000000000000a000000000000000001a605a6050000000000000000000000000000000000000c000002000200000001000000000000000000000000000000000000000000000c000002000200000000000000000000000000000000717b484e0000000000000e000002000000000020000000000000000000000000000000000000000000000c000001000100000001410000000000000000000000000000000000000000000c000001000100000000000000000000000000000000000000000000000000000c000002000200000001040000000000000000000000000000000000000000000c00000200020000000000000000000000000000000000000000000000000000070000000000000000032e0700000000000000000000000000000000000000000c000002000200000001240000000000000000000000000000000000000000000c000002000200000000000000000000000000000000000000000000000000000e000002000000000000000000000000000000000000000000000000000000000c000002000200000001000000000000000000000000000000000000000000000c000002000200000000000000000000000000000000000000000000000000000c000004000400000001010000000000000000000000000000000000000000000c0000040004000000000000000000000000000000000000000000000000000002020000000800000000000000000000000000000000000000000000000000000e000000004000000061160000000000000000000000000000000000000000000a000000000000000001c805c805000000000000000000000000000000000000021000000008000000000000000000000000000000000000000000000000000004200000000000000000000000000000000000000000000000000000000000000a00000000000000000ac8055b06000000000000000000000000000000000000180000080010000000000500000000000000000000000000000000000000000008100040001000000000000000000000000000000000000000000000000000000e100000002000000021000000000000000000000000000000000000000000000e100020000000000000010000000000000000000000000000000000000000000200000800100000000001000000000000000000000000000000000000000000020400000020000000000000000000000000000000000000000000000000000004100008000000000000000000000000000000000000000000000000000000000a000000000000000002c505d00500000000000000000000000000000000000002020000002000000000000000000000000000000000000000000000000000000a000000000000000001c505c5050000000000000000000000000000000000000c000002000200000001010000000000000000000000000000000000000000000c000002000200000000000000000000000000000000000000000000000000000e000002000000000060150000000000000000000000000000000000000000000c000002000200000001000000000000000000000000000000000000000000000c000002000200000000000000000000000000000000717b484e0000000000000e000002000000000020000000000000000000000000000000000000000000000c000001000100000001410000000000000000000000000000000000000000000c000001000100000000000000000000000000000000000000000000000000000c000002000200000001040000000000000000000000000000000000000000000c00000200020000000000000000000000000000000000000000000000000000070000000000000000032e0700000000000000000000000000000000000000000e000000004000000061150000000000000000000000000000000000000000000c000002000200000001240000000000000000000000000000000000000000000c000002000200000000000000000000000000000000000000000000000000000e000002000000000000000000000000000000000000000000000000000000000c000002000200000001000000000000000000000000000000000000000000000c0000020002000000000000000000000000000000000000000000000000000002020000000400000000000000000000000000000000000000000000000000000e000000002000000061160000000000000000000000000000000000000000000a000000000000000001e905e905000000000000000000000000000000000000020800000004000000000000000000000000000000000000000000000000000004100000000000000000000000000000000000000000000000000000000000000a00000000000000000ae9056606000000000000000000000000000000000000180000040008000000000500000000000000000000000000000000000000000008080020000800000000000000000000000000000000000000000000000000000e080000001000000021000000000000000000000000000000000000000000000e080010000000000000010000000000000000000000000000000000000000000200000400080000000001000000000000000000000000000000000000000000024000000010000000000000000000000000000000000000000000000000000004080004000000000000000000000000000000000000000000000000000000000a000000000000000002e605f10500000000000000000000000000000000000002020000001000000000000000000000000000000000000000000000000000000a000000000000000001e605e6050000000000000000000000000000000000000c000002000200000001000000000000000000000000000000000000000000000c000002000200000000000000000000000000000000717b484e0000000000000e000002000000000020000000000000000000000000000000000000000000000c000001000100000001410000000000000000000000000000000000000000000c000001000100000000000000000000000000000000000000000000000000000c000002000200000001040000000000000000000000000000000000000000000c00000200020000000000000000000000000000000000000000000000000000070000000000000000032e0700000000000000000000000000000000000000000c000002000200000001240000000000000000000000000000000000000000000c000002000200000000000000000000000000000000000000000000000000000e000002000000000000000000000000000000000000000000000000000000000c000002000200000001000000000000000000000000000000000000000000000c000002000200000000000000000000000000000000000000000000000000000c000004000400000001010000000000000000000000000000000000000000000c0000040004000000000000000000000000000000000000000000000000000002020000000800000000000000000000000000000000000000000000000000000e000000004000000061160000000000000000000000000000000000000000000a00000000000000000108060806000000000000000000000000000000000000021000000008000000000000000000000000000000000000000000000000000004200000000000000000000000000000000000000000000000000000000000000a00000000000000000a08067106000000000000000000000000000000000000180000080010000000000500000000000000000000000000000000000000000008100040001000000000000000000000000000000000000000000000000000000e100000002000000021000000000000000000000000000000000000000000000e100020000000000000010000000000000000000000000000000000000000000200000800100000000001000000000000000000000000000000000000000000020400000020000000000000000000000000000000000000000000000000000004100008000000000000000000000000000000000000000000000000000000000a0000000000000000020506100600000000000000000000000000000000000002020000002000000000000000000000000000000000000000000000000000000a000000000000000001050605060000000000000000000000000000000000000c000002000200000001000000000000000000000000000000000000000000000c000002000200000000000000000000000000000000717b484e0000000000000e000002000000000020000000000000000000000000000000000000000000000c000001000100000001410000000000000000000000000000000000000000000c000001000100000000000000000000000000000000000000000000000000000c000002000200000001040000000000000000000000000000000000000000000c00000200020000000000000000000000000000000000000000000000000000070000000000000000032e0700000000000000000000000000000000000000000c000002000200000001240000000000000000000000000000000000000000000c000002000200000000000000000000000000000000000000000000000000000e000002000000000000000000000000000000000000000000000000000000000c000002000200000001000000000000000000000000000000000000000000000c000002000200000000000000000000000000000000000000000000000000000c000004000400000001010000000000000000000000000000000000000000000c0000040004000000000000000000000000000000000000000000000000000002020000000800000000000000000000000000000000000000000000000000000e000000004000000061160000000000000000000000000000000000000000000a00000000000000000127062706000000000000000000000000000000000000021000000008000000000000000000000000000000000000000000000000000004200000000000000000000000000000000000000000000000000000000000000a00000000000000000a27067c06000000000000000000000000000000000000180000080010000000000500000000000000000000000000000000000000000008100040001000000000000000000000000000000000000000000000000000000e100000002000000021000000000000000000000000000000000000000000000e100020000000000000010000000000000000000000000000000000000000000200000800100000000001000000000000000000000000000000000000000000020400000020000000000000000000000000000000000000000000000000000004100008000000000000000000000000000000000000000000000000000000000a00000000000000000224062f0600000000000000000000000000000000000002020000002000000000000000000000000000000000000000000000000000000a000000000000000001240624060000000000000000000000000000000000000c000002000200000001000000000000000000000000000000000000000000000c000002000200000000000000000000000000000000717b484e0000000000000e000002000000000020000000000000000000000000000000000000000000000c000001000100000001410000000000000000000000000000000000000000000c000001000100000000000000000000000000000000000000000000000000000c000002000200000001040000000000000000000000000000000000000000000c00000200020000000000000000000000000000000000000000000000000000070000000000000000032e0700000000000000000000000000000000000000000c000002000200000001240000000000000000000000000000000000000000000c000002000200000000000000000000000000000000000000000000000000000e000002000000000000000000000000000000000000000000000000000000000c000002000200000001000000000000000000000000000000000000000000000c000002000200000000000000000000000000000000000000000000000000000c000004000400000001010000000000000000000000000000000000000000000c0000040004000000000000000000000000000000000000000000000000000002020000000800000000000000000000000000000000000000000000000000000e000000004000000061160000000000000000000000000000000000000000000a00000000000000000146064606000000000000000000000000000000000000021000000008000000000000000000000000000000000000000000000000000004200000000000000000000000000000000000000000000000000000000000000a00000000000000000a46068706000000000000000000000000000000000000180000080010000000000500000000000000000000000000000000000000000008100040001000000000000000000000000000000000000000000000000000000e100000002000000021000000000000000000000000000000000000000000000e100020000000000000010000000000000000000000000000000000000000000200000800100000000001000000000000000000000000000000000000000000020400000020000000000000000000000000000000000000000000000000000004100008000000000000000000000000000000000000000000000000000000000a00000000000000000243064e0600000000000000000000000000000000000002020000002000000000000000000000000000000000000000000000000000000a000000000000000001430643060000000000000000000000000000000000000c000002000200000001ffffffffffffffffffffffffffffffff0000000000000c000002000200000000ffffffffffffffffffffffff000000000000000000000e000000000400000001020000000000000000000000000000000000000000001a040002000200000002000000000000000000000000000000000000000000000c000004000400000001000000000000000000000000000000000000000000000c000004000400000000000000000000000000000000ffffffff0000000000000e000000000800000021010000000000000000000000000000000000000000001a080004000400000002000000000000000000000000000000000000000000001a040002000200000004000000000000000000000000000000000000000000000e000002000000000000020000000000000000000000000000000000000000000a000000000000000001040704070000000000000000000000000000000000000c000002000200000001ffffffffffffffffffffffffffffffff0000000000000c000002000200000000ffffffffffffffffffffffff000000000000000000000e000000000400000001020000000000000000000000000000000000000000001a040002000200000002000000000000000000000000000000000000000000000c000004000400000001000000000000000000000000000000000000000000000c000004000400000000000000000000000000000000ffffffff0000000000000e000000000800000021010000000000000000000000000000000000000000001a080004000400000002000000000000000000000000000000000000000000001a040002000200000004000000000000000000000000000000000000000000000e000002000000000000020000000000000000000000000000000000000000000a000000000000000001040704070000000000000000000000000000000000000c000002000200000001ffffffffffffffffffffffffffffffff0000000000000c000002000200000000ffffffffffffffffffffffff000000000000000000000e000000000400000001020000000000000000000000000000000000000000001a040002000200000002000000000000000000000000000000000000000000000c000004000400000001000000000000000000000000000000000000000000000c000004000400000000000000000000000000000000ffffffff0000000000000e000000000800000021010000000000000000000000000000000000000000001a080004000400000002000000000000000000000000000000000000000000001a040002000200000004000000000000000000000000000000000000000000000e000002000000000000020000000000000000000000000000000000000000000a000000000000000001040704070000000000000000000000000000000000000c000002000200000001ffffffffffffffffffffffffffffffff0000000000000c000002000200000000ffffffffffffffffffffffff000000000000000000000e000000000400000001020000000000000000000000000000000000000000001a040002000200000002000000000000000000000000000000000000000000000c000004000400000001000000000000000000000000000000000000000000000c000004000400000000000000000000000000000000ffffffff0000000000000e000000000800000021010000000000000000000000000000000000000000001a080004000400000002000000000000000000000000000000000000000000001a040002000200000004000000000000000000000000000000000000000000000e000002000000000000020000000000000000000000000000000000000000000a000000000000000001040704070000000000000000000000000000000000000c000002000200000001ffffffffffffffffffffffffffffffff0000000000000c000002000200000000ffffffffffffffffffffffff000000000000000000000e000000000400000001020000000000000000000000000000000000000000001a040002000200000002000000000000000000000000000000000000000000000c000004000400000001000000000000000000000000000000000000000000000c000004000400000000000000000000000000000000ffffffff0000000000000e000000000800000021010000000000000000000000000000000000000000001a080004000400000002000000000000000000000000000000000000000000001a040002000200000004000000000000000000000000000000000000000000000e000002000000000000020000000000000000000000000000000000000000000a000000000000000001040704070000000000000000000000000000000000000c000002000200000001ffffffffffffffffffffffffffffffff0000000000000c000002000200000000ffffffffffffffffffffffff000000000000000000000e000000000400000001020000000000000000000000000000000000000000001a040002000200000002000000000000000000000000000000000000000000000c000004000400000001000000000000000000000000000000000000000000000c000004000400000000000000000000000000000000ffffffff0000000000000e000000000800000021010000000000000000000000000000000000000000001a080004000400000002000000000000000000000000000000000000000000001a040002000200000004000000000000000000000000000000000000000000000e000002000000000000020000000000000000000000000000000000000000000a000000000000000001040704070000000000000000000000000000000000000c000008000800000001000000000000000000000000000000000000000000000c000008000800000000000000000000000000000000000000000000000000000e000000000200000021020000000000000000000000000000000000000000000e000002000000000060150000000000000000000000000000000000000000000e000000000200000041000000000000000000000000000000000000000000001a0000020004000000021f0000000000000000000000000000000000000000000e000004000000000060120000000000000000000000000000000000000000001a000002000200000002e0ffffff0000000000000000000000000000000000000e0000020000000000601100000000000000000000000000000000000000000018000002000200000002050000000000000000000000000000000000000000000e0000020000000000601300000000000000000000000000000000000000000004020000000000000000000000000000000000000000000000000000000000000a000000000000000004ac069f060000000000000000000000000000000000000e0000080000000000601400000000000000000000000000000000000000000018000008000400000000050000000000000000000000000000000000000000000e0000000002000000611500000000000000000000000000000000000000000002020004000200000000000000000000000000000000000000000000000000000e0000000008000000611600000000000000000000000000000000000000000008040008000400000000000000000000000000000000000000000000000000000e04000000010000004101000000000000000000000000000000000000000000070000000000000000032e0700000000000000000000000000000000000000000e0000000008000000611400000000000000000000000000000000000000000002000008000800000000010000000000000000000000000000000000000000000e0000000002000000611300000000000000000000000000000000000000000004080002000000000000000000000000000000000000000000000000000000000a0000000000000000029f06ac060000000000000000000000000000000000000e000000000200000061150000000000000000000000000000000000000000000c000002000200000001000100000000000000000000000000000000000000000c000002000200000000000000000000000000000000000000000000000000000e000002000000000060100000000000000000000000000000000000000000000c000002000200000001ffffffffffffffffffffffffffffffff0000000000000c000002000200000000ffffffffffffffffffffffffffffffff0000000000000e0000020000000000600f0000000000000000000000000000000000000000000e0000000002000000611200000000000000000000000000000000000000000004020000000000000000000000000000000000000000000000000000000000000a000000000000000004cf06b6060000000000000000000000000000000000000e0000000002000000611200000000000000000000000000000000000000000018000002000200000000030000000000000000000000000000000000000000000e0000000004000000611000000000000000000000000000000000000000000004040002000400000000000000000000000000000000000000000000000000000e0000000010000000610f00000000000000000000000000000000000000000018040010000400000000000000000000000000000000000000000000000000000e000000000800000061160000000000000000000000000000000000000000000e0000000020000000611100000000000000000000000000000000000000000008200008000800000000000000000000000000000000000000000000000000000e080000000800000041010000000000000000000000000000000000000000001a080004000400000002000000000000000000000000000000000000000000000e0000040000000000601400000000000000000000000000000000000000000018020010000200000002000000000000000000000000000000000000000000000e000002000000000060120000000000000000000000000000000000000000000e0000000002000000611500000000000000000000000000000000000000000002020020000200000000000000000000000000000000000000000000000000000e00000200000000006013000000000000000000000000000000000000000000020200000001000000000000000000000000000000000000000000000000000007000000000000000003060700000000000000000000000000000000000000000e000000000200000061120000000000000000000000000000000000000000001a010002000200000002000000000000000000000000000000000000000000000e000000000400000061140000000000000000000000000000000000000000001a040002000100000004000000000000000000000000000000000000000000000e00000000020000006113000000000000000000000000000000000000000000070000000000000000032e0700000000000000000000000000000000000000000c000008000800000001000000000000000000000000000000000000000000000c000008000800000000000000000000000000000000000000000000000000000e000000000400000041000000000000000000000000000000000000000000001a0000040002000000021f0000000000000000000000000000000000000000000e000002000000000060110000000000000000000000000000000000000000000e0000040000000000600e0000000000000000000000000000000000000000001a000004000200000002ffffffff0000000000000000000000000000000000000e0000020000000000000000000000000000000000000000000000000000000018000002000200000002050000000000000000000000000000000000000000000e000000000400000061160000000000000000000000000000000000000000000e000000000400000061150000000000000000000000000000000000000000000e0000020000000000601200000000000000000000000000000000000000000004020000000000000000000000000000000000000000000000000000000000000a000000000000000004ec06dd060000000000000000000000000000000000000e0000080000000000601400000000000000000000000000000000000000000018000008000400000000050000000000000000000000000000000000000000000e000004000000000060130000000000000000000000000000000000000000000e00000000020000006115000000000000000000000000000000000000000000020200040001000000000000000000000000000000000000000000000000000007000000000000000003060700000000000000000000000000000000000000000e000000000800000061140000000000000000000000000000000000000000000e000000000200000061160000000000000000000000000000000000000000000e0000000004000000611300000000000000000000000000000000000000000008040002000200000000000000000000000000000000000000000000000000000e0200010000000000000100000000000000000000000000000000000000000002000008000800000000010000000000000000000000000000000000000000000e0000000002000000611200000000000000000000000000000000000000000004080002000000000000000000000000000000000000000000000000000000000a000000000000000002dd06ec060000000000000000000000000000000000000e0000000002000000611100000000000000000000000000000000000000000004020000000000000000000000000000000000000000000000000000000000000a0000000000000000040407ef060000000000000000000000000000000000000e0000000002000000610e0000000000000000000000000000000000000000001a000002000400000002e0ffffff0000000000000000000000000000000000000e000004000000000060140000000000000000000000000000000000000000000e00000000020000006115000000000000000000000000000000000000000000020200040001000000000000000000000000000000000000000000000000000007000000000000000003060700000000000000000000000000000000000000000e000000000200000061160000000000000000000000000000000000000000000e0000000004000000611400000000000000000000000000000000000000000008040002000200000000000000000000000000000000000000000000000000000e0000000004000000611100000000000000000000000000000000000000000018000004000400000000030000000000000000000000000000000000000000000e0000000020000000610f00000000000000000000000000000000000000000018040020000800000002000000000000000000000000000000000000000000000e020000001000000001010000000000000000000000000000000000000000001a100008000800000002000000000000000000000000000000000000000000000e00000000100000006110000000000000000000000000000000000000000000041000040004000000000000000000000000000000000000000000000000000018040020000400000000000000000000000000000000000000000000000000001a010004000400000002000000000000000000000000000000000000000000001a040008000400000004000000000000000000000000000000000000000000000e020004000000000000010000000000000000000000000000000000000000000e0000000000000000e11800000000000000000000000000000000000000000007000000000000000004000000000000000000000000000000000000000000000c000002000200000001e0ffffffffffffffffffffffffffffff0000000000000c000002000200000000ffffffffffffffffffffffffffffffff0000000000001a010002000200000002000000000000000000000000000000000000000000000c000004000400000001200000000000000000000000000000000000000000000c0000040004000000000000000000000000000000000000000000000000000008020004000400000000000000000000000000000000000000000000000000001a0000010002000000021f00000000000000000000000000000000000000000018000002000800000000030000000000000000000000000000000000000000000e0400000002000000210000000000000000000000000000000000000000000004080000000000000000000000000000000000000000000000000000000000000a000000000000000004180711070000000000000000000000000000000000000c000010001000000001000100000000000000000000000000000000000000000c0000100010000000000000000000000000000000000000000000000000000004100008001000000000000000000000000000000000000000000000000000000e04000000040000002101000000000000000000000000000000000000000000181000040004000000020000000000000000000000000000000000000000000018080002000200000000000000000000000000000000000000000000000000001a04000200020000000400000000000000000000000000000000000000000000020200000001000000000000000000000000000000000000000000000000000007000000000000000000000000000000000000000000000000000000000000000c000002000200000001e0ffffffffffffffffffffffffffffff0000000000000c000002000200000000ffffffffffffffffffffffffffffffff0000000000001a010002000200000002000000000000000000000000000000000000000000000c000004000400000001200000000000000000000000000000000000000000000c0000040004000000000000000000000000000000000000000000000000000008020004000400000000000000000000000000000000000000000000000000001a0000010002000000021f00000000000000000000000000000000000000000018000002000800000000030000000000000000000000000000000000000000000e0400000002000000010000000000000000000000000000000000000000000004080000000000000000000000000000000000000000000000000000000000000a0000000000000000042c0725070000000000000000000000000000000000000c000010001000000001000100000000000000000000000000000000000000000c0000100010000000000000000000000000000000000000000000000000000004100008001000000000000000000000000000000000000000000000000000000e04000000040000000101000000000000000000000000000000000000000000181000040004000000020000000000000000000000000000000000000000000018080002000200000000000000000000000000000000000000000000000000001a04000200020000000400000000000000000000000000000000000000000000020200000001000000000000000000000000000000000000000000000000000007000000000000000000000000000000000000000000000000000000000000000c000004000400000001e0ffffffffffffffffffffffffffffff0000000000000c000004000400000000ffffffffffffffffffffffffffffffff0000000000001a020004000400000002000000000000000000000000000000000000000000000c000008000800000001200000000000000000000000000000000000000000000c0000080008000000000000000000000000000000000000000000000000000008040008000400000000000000000000000000000000000000000000000000001a0000020002000000021f00000000000000000000000000000000000000000018000002000200000000030000000000000000000000000000000000000000000c000008000800000001000100000000000000000000000000000000000000000c0000080008000000000000000000000000000000000000000000000000000004080002001000000000000000000000000000000000000000000000000000000c000020002000000001ffffffffffffffffffffffffffffffff0000000000000c000020002000000000ffffffffffffffffffffffffffffffff000000000000020100000008000000000000000000000000000000000000000000000000000004020000000000000000000000000000000000000000000000000000000000000a00000000000000000443073e0700000000000000000000000000000000000018100020000800000000000000000000000000000000000000000000000000000e040000004000000021000000000000000000000000000000000000000000001a4000080008000000020000000000000000000000000000000000000000000018020001004000000002000000000000000000000000000000000000000000001a400008000800000004000000000000000000000000000000000000000000000e0400000040000000210100000000000000000000000000000000000000000004020000000000000000000000000000000000000000000000000000000000000a0000000000000000044a074607000000000000000000000000000000000000181000010010000000000000000000000000000000000000000000000000000018020020000200000002000000000000000000000000000000000000000000001a400002000200000002000000000000000000000000000000000000000000001a100002004000000004000000000000000000000000000000000000000000000e040040000000000020010000000000000000000000000000000000000000000e04000800000000002000000000000000000000000000000000000000000000070000000000000000000000000000000000000000000000000000000000000007010000000000000005000000000000000000000000000000000000000000000a0000000000000000024f0752070000000000000000000000000000000000000c000001000100000001000000000000000000000000000000000000000000000c0000010001000000000000000000000000000000000000000000000000000007000000000000000000000000000000000000000000000000000000000000000c000001000100000001010000000000000000000000000000000000000000000c000001000100000000000000000000000000000000000000000000000000000700000000000000000000000000000000000000000000000000000000000000"
        }
      },
      "factoryDependencies": {},
      "hash": "ab19714a87e982a3c31eca67d72cbd05b4687f3dbaceac9b27bafc0f9731de18"
    }
  }
}